{
	"data": {
		"bytecode": {
			"linkReferences": {},
			"object": "608060405234801562000010575f80fd5b5060405180602001604052805f8152506200003181620000e660201b60201c565b506200005262000046620000fb60201b60201c565b6200010260201b60201c565b6040518060400160405280600981526020017f486173684974656d7300000000000000000000000000000000000000000000008152506004908162000098919062000429565b506040518060400160405280600981526020017f484153484954454d53000000000000000000000000000000000000000000000081525060059081620000df919062000429565b506200050d565b8060029081620000f7919062000429565b5050565b5f33905090565b5f60035f9054906101000a900473ffffffffffffffffffffffffffffffffffffffff1690508160035f6101000a81548173ffffffffffffffffffffffffffffffffffffffff021916908373ffffffffffffffffffffffffffffffffffffffff1602179055508173ffffffffffffffffffffffffffffffffffffffff168173ffffffffffffffffffffffffffffffffffffffff167f8be0079c531659141344cd1fd0a4f28419497f9722a3daafe3b4186f6b6457e060405160405180910390a35050565b5f81519050919050565b7f4e487b71000000000000000000000000000000000000000000000000000000005f52604160045260245ffd5b7f4e487b71000000000000000000000000000000000000000000000000000000005f52602260045260245ffd5b5f60028204905060018216806200024157607f821691505b602082108103620002575762000256620001fc565b5b50919050565b5f819050815f5260205f209050919050565b5f6020601f8301049050919050565b5f82821b905092915050565b5f60088302620002bb7fffffffffffffffffffffffffffffffffffffffffffffffffffffffffffffffff826200027e565b620002c786836200027e565b95508019841693508086168417925050509392505050565b5f819050919050565b5f819050919050565b5f620003116200030b6200030584620002df565b620002e8565b620002df565b9050919050565b5f819050919050565b6200032c83620002f1565b620003446200033b8262000318565b8484546200028a565b825550505050565b5f90565b6200035a6200034c565b6200036781848462000321565b505050565b5b818110156200038e57620003825f8262000350565b6001810190506200036d565b5050565b601f821115620003dd57620003a7816200025d565b620003b2846200026f565b81016020851015620003c2578190505b620003da620003d1856200026f565b8301826200036c565b50505b505050565b5f82821c905092915050565b5f620003ff5f1984600802620003e2565b1980831691505092915050565b5f620004198383620003ee565b9150826002028217905092915050565b6200043482620001c5565b67ffffffffffffffff81111562000450576200044f620001cf565b5b6200045c825462000229565b6200046982828562000392565b5f60209050601f8311600181146200049f575f84156200048a578287015190505b6200049685826200040c565b86555062000505565b601f198416620004af866200025d565b5f5b82811015620004d857848901518255600182019150602085019450602081019050620004b1565b86831015620004f85784890151620004f4601f891682620003ee565b8355505b6001600288020188555050505b505050505050565b613c56806200051b5f395ff3fe608060405234801561000f575f80fd5b5060043610610129575f3560e01c8063862440e2116100ab578063c87b56dd1161006f578063c87b56dd14610315578063d81d0a1514610345578063e985e9c514610361578063f242432a14610391578063f2fde38b146103ad57610129565b8063862440e2146102855780638da5cb5b146102a157806395d89b41146102bf578063a22cb465146102dd578063b390c0ab146102f957610129565b80632eb2c2d6116100f25780632eb2c2d6146101f75780634e1273f414610213578063510f410414610243578063715018a61461025f57806383ca4b6f1461026957610129565b8062fdd58e1461012d57806301ffc9a71461015d57806306fdde031461018d5780630e89341c146101ab578063156e29f6146101db575b5f80fd5b610147600480360381019061014291906122d3565b6103c9565b6040516101549190612320565b60405180910390f35b6101776004803603810190610172919061238e565b61048c565b60405161018491906123d3565b60405180910390f35b61019561056d565b6040516101a29190612476565b60405180910390f35b6101c560048036038101906101c09190612496565b6105f9565b6040516101d29190612476565b60405180910390f35b6101f560048036038101906101f091906124c1565b61069a565b005b610211600480360381019061020c9190612701565b6106c1565b005b61022d6004803603810190610228919061288c565b610762565b60405161023a91906129b9565b60405180910390f35b61025d600480360381019061025891906129d9565b610879565b005b6102676108ad565b005b610283600480360381019061027e9190612ac0565b6108c0565b005b61029f600480360381019061029a9190612bd4565b6108cf565b005b6102a9610932565b6040516102b69190612c3d565b60405180910390f35b6102c761095a565b6040516102d49190612476565b60405180910390f35b6102f760048036038101906102f29190612c80565b6109e6565b005b610313600480360381019061030e9190612cbe565b6109fc565b005b61032f600480360381019061032a9190612496565b610a0b565b60405161033c9190612476565b60405180910390f35b61035f600480360381019061035a9190612cfc565b610aa6565b005b61037b60048036038101906103769190612d84565b610acd565b60405161038891906123d3565b60405180910390f35b6103ab60048036038101906103a69190612dc2565b610b5b565b005b6103c760048036038101906103c29190612e55565b610bfc565b005b5f8073ffffffffffffffffffffffffffffffffffffffff168373ffffffffffffffffffffffffffffffffffffffff1603610438576040517f08c379a000000000000000000000000000000000000000000000000000000000815260040161042f90612ef0565b60405180910390fd5b5f808381526020019081526020015f205f8473ffffffffffffffffffffffffffffffffffffffff1673ffffffffffffffffffffffffffffffffffffffff1681526020019081526020015f2054905092915050565b5f7fd9b67a26000000000000000000000000000000000000000000000000000000007bffffffffffffffffffffffffffffffffffffffffffffffffffffffff1916827bffffffffffffffffffffffffffffffffffffffffffffffffffffffff1916148061055657507f0e89341c000000000000000000000000000000000000000000000000000000007bffffffffffffffffffffffffffffffffffffffffffffffffffffffff1916827bffffffffffffffffffffffffffffffffffffffffffffffffffffffff1916145b80610566575061056582610c7e565b5b9050919050565b6004805461057a90612f3b565b80601f01602080910402602001604051908101604052809291908181526020018280546105a690612f3b565b80156105f15780601f106105c8576101008083540402835291602001916105f1565b820191905f5260205f20905b8154815290600101906020018083116105d457829003601f168201915b505050505081565b606060065f8381526020019081526020015f20805461061790612f3b565b80601f016020809104026020016040519081016040528092919081815260200182805461064390612f3b565b801561068e5780601f106106655761010080835404028352916020019161068e565b820191905f5260205f20905b81548152906001019060200180831161067157829003601f168201915b50505050509050919050565b6106a2610ce7565b6106bc83838360405180602001604052805f815250610d65565b505050565b6106c9610f08565b73ffffffffffffffffffffffffffffffffffffffff168573ffffffffffffffffffffffffffffffffffffffff16148061070f575061070e85610709610f08565b610acd565b5b61074e576040517f08c379a000000000000000000000000000000000000000000000000000000000815260040161074590612fdb565b60405180910390fd5b61075b8585858585610f0f565b5050505050565b606081518351146107a8576040517f08c379a000000000000000000000000000000000000000000000000000000000815260040161079f90613069565b60405180910390fd5b5f835167ffffffffffffffff8111156107c4576107c3612515565b5b6040519080825280602002602001820160405280156107f25781602001602082028036833780820191505090505b5090505f5b845181101561086e5761083e85828151811061081657610815613087565b5b602002602001015185838151811061083157610830613087565b5b60200260200101516103c9565b82828151811061085157610850613087565b5b60200260200101818152505080610867906130e1565b90506107f7565b508091505092915050565b610881610ce7565b61088c85858561121d565b6108a685838360405180602001604052805f8152506114d8565b5050505050565b6108b5610ce7565b6108be5f6116f8565b565b6108cb33838361121d565b5050565b6108d7610ce7565b8060065f8481526020019081526020015f2090816108f591906132c5565b50817f6bb7ff708619ba0610cba295a58592e0451dee2622938c8755667688daf3529b826040516109269190612476565b60405180910390a25050565b5f60035f9054906101000a900473ffffffffffffffffffffffffffffffffffffffff16905090565b6005805461096790612f3b565b80601f016020809104026020016040519081016040528092919081815260200182805461099390612f3b565b80156109de5780601f106109b5576101008083540402835291602001916109de565b820191905f5260205f20905b8154815290600101906020018083116109c157829003601f168201915b505050505081565b6109f86109f1610f08565b83836117bb565b5050565b610a07338383611922565b5050565b6006602052805f5260405f205f915090508054610a2790612f3b565b80601f0160208091040260200160405190810160405280929190818152602001828054610a5390612f3b565b8015610a9e5780601f10610a7557610100808354040283529160200191610a9e565b820191905f5260205f20905b815481529060010190602001808311610a8157829003601f168201915b505050505081565b610aae610ce7565b610ac883838360405180602001604052805f8152506114d8565b505050565b5f60015f8473ffffffffffffffffffffffffffffffffffffffff1673ffffffffffffffffffffffffffffffffffffffff1681526020019081526020015f205f8373ffffffffffffffffffffffffffffffffffffffff1673ffffffffffffffffffffffffffffffffffffffff1681526020019081526020015f205f9054906101000a900460ff16905092915050565b610b63610f08565b73ffffffffffffffffffffffffffffffffffffffff168573ffffffffffffffffffffffffffffffffffffffff161480610ba95750610ba885610ba3610f08565b610acd565b5b610be8576040517f08c379a0000000000000000000000000000000000000000000000000000000008152600401610bdf90612fdb565b60405180910390fd5b610bf58585858585611b56565b5050505050565b610c04610ce7565b5f73ffffffffffffffffffffffffffffffffffffffff168173ffffffffffffffffffffffffffffffffffffffff1603610c72576040517f08c379a0000000000000000000000000000000000000000000000000000000008152600401610c6990613404565b60405180910390fd5b610c7b816116f8565b50565b5f7f01ffc9a7000000000000000000000000000000000000000000000000000000007bffffffffffffffffffffffffffffffffffffffffffffffffffffffff1916827bffffffffffffffffffffffffffffffffffffffffffffffffffffffff1916149050919050565b610cef610f08565b73ffffffffffffffffffffffffffffffffffffffff16610d0d610932565b73ffffffffffffffffffffffffffffffffffffffff1614610d63576040517f08c379a0000000000000000000000000000000000000000000000000000000008152600401610d5a9061346c565b60405180910390fd5b565b5f73ffffffffffffffffffffffffffffffffffffffff168473ffffffffffffffffffffffffffffffffffffffff1603610dd3576040517f08c379a0000000000000000000000000000000000000000000000000000000008152600401610dca906134fa565b60405180910390fd5b5f610ddc610f08565b90505f610de885611ddf565b90505f610df485611ddf565b9050610e04835f89858589611e57565b845f808881526020019081526020015f205f8973ffffffffffffffffffffffffffffffffffffffff1673ffffffffffffffffffffffffffffffffffffffff1681526020019081526020015f205f828254610e5e9190613518565b925050819055508673ffffffffffffffffffffffffffffffffffffffff165f73ffffffffffffffffffffffffffffffffffffffff168473ffffffffffffffffffffffffffffffffffffffff167fc3d58168c5ae7397731d063d5bbf3d657854427343f4c083240f7aacaa2d0f628989604051610edb92919061354b565b60405180910390a4610ef1835f89858589611e5f565b610eff835f89898989611e67565b50505050505050565b5f33905090565b8151835114610f53576040517f08c379a0000000000000000000000000000000000000000000000000000000008152600401610f4a906135e2565b60405180910390fd5b5f73ffffffffffffffffffffffffffffffffffffffff168473ffffffffffffffffffffffffffffffffffffffff1603610fc1576040517f08c379a0000000000000000000000000000000000000000000000000000000008152600401610fb890613670565b60405180910390fd5b5f610fca610f08565b9050610fda818787878787611e57565b5f5b845181101561117a575f858281518110610ff957610ff8613087565b5b602002602001015190505f85838151811061101757611016613087565b5b602002602001015190505f805f8481526020019081526020015f205f8b73ffffffffffffffffffffffffffffffffffffffff1673ffffffffffffffffffffffffffffffffffffffff1681526020019081526020015f20549050818110156110b3576040517f08c379a00000000000000000000000000000000000000000000000000000000081526004016110aa906136fe565b60405180910390fd5b8181035f808581526020019081526020015f205f8c73ffffffffffffffffffffffffffffffffffffffff1673ffffffffffffffffffffffffffffffffffffffff1681526020019081526020015f2081905550815f808581526020019081526020015f205f8b73ffffffffffffffffffffffffffffffffffffffff1673ffffffffffffffffffffffffffffffffffffffff1681526020019081526020015f205f82825461115f9190613518565b9250508190555050505080611173906130e1565b9050610fdc565b508473ffffffffffffffffffffffffffffffffffffffff168673ffffffffffffffffffffffffffffffffffffffff168273ffffffffffffffffffffffffffffffffffffffff167f4a39dc06d4c0dbc64b70af90fd698a233a518aa5d07e595d983b8c0526c8f7fb87876040516111f192919061371c565b60405180910390a4611207818787878787611e5f565b61121581878787878761203d565b505050505050565b5f73ffffffffffffffffffffffffffffffffffffffff168373ffffffffffffffffffffffffffffffffffffffff160361128b576040517f08c379a0000000000000000000000000000000000000000000000000000000008152600401611282906137c1565b60405180910390fd5b80518251146112cf576040517f08c379a00000000000000000000000000000000000000000000000000000000081526004016112c6906135e2565b60405180910390fd5b5f6112d8610f08565b90506112f681855f868660405180602001604052805f815250611e57565b5f5b8351811015611437575f84828151811061131557611314613087565b5b602002602001015190505f84838151811061133357611332613087565b5b602002602001015190505f805f8481526020019081526020015f205f8973ffffffffffffffffffffffffffffffffffffffff1673ffffffffffffffffffffffffffffffffffffffff1681526020019081526020015f20549050818110156113cf576040517f08c379a00000000000000000000000000000000000000000000000000000000081526004016113c69061384f565b60405180910390fd5b8181035f808581526020019081526020015f205f8a73ffffffffffffffffffffffffffffffffffffffff1673ffffffffffffffffffffffffffffffffffffffff1681526020019081526020015f2081905550505050808061142f906130e1565b9150506112f8565b505f73ffffffffffffffffffffffffffffffffffffffff168473ffffffffffffffffffffffffffffffffffffffff168273ffffffffffffffffffffffffffffffffffffffff167f4a39dc06d4c0dbc64b70af90fd698a233a518aa5d07e595d983b8c0526c8f7fb86866040516114ae92919061371c565b60405180910390a46114d281855f868660405180602001604052805f815250611e5f565b50505050565b5f73ffffffffffffffffffffffffffffffffffffffff168473ffffffffffffffffffffffffffffffffffffffff1603611546576040517f08c379a000000000000000000000000000000000000000000000000000000000815260040161153d906134fa565b60405180910390fd5b815183511461158a576040517f08c379a0000000000000000000000000000000000000000000000000000000008152600401611581906135e2565b60405180910390fd5b5f611593610f08565b90506115a3815f87878787611e57565b5f5b8451811015611656578381815181106115c1576115c0613087565b5b60200260200101515f808784815181106115de576115dd613087565b5b602002602001015181526020019081526020015f205f8873ffffffffffffffffffffffffffffffffffffffff1673ffffffffffffffffffffffffffffffffffffffff1681526020019081526020015f205f82825461163c9190613518565b92505081905550808061164e906130e1565b9150506115a5565b508473ffffffffffffffffffffffffffffffffffffffff165f73ffffffffffffffffffffffffffffffffffffffff168273ffffffffffffffffffffffffffffffffffffffff167f4a39dc06d4c0dbc64b70af90fd698a233a518aa5d07e595d983b8c0526c8f7fb87876040516116cd92919061371c565b60405180910390a46116e3815f87878787611e5f565b6116f1815f8787878761203d565b5050505050565b5f60035f9054906101000a900473ffffffffffffffffffffffffffffffffffffffff1690508160035f6101000a81548173ffffffffffffffffffffffffffffffffffffffff021916908373ffffffffffffffffffffffffffffffffffffffff1602179055508173ffffffffffffffffffffffffffffffffffffffff168173ffffffffffffffffffffffffffffffffffffffff167f8be0079c531659141344cd1fd0a4f28419497f9722a3daafe3b4186f6b6457e060405160405180910390a35050565b8173ffffffffffffffffffffffffffffffffffffffff168373ffffffffffffffffffffffffffffffffffffffff1603611829576040517f08c379a0000000000000000000000000000000000000000000000000000000008152600401611820906138dd565b60405180910390fd5b8060015f8573ffffffffffffffffffffffffffffffffffffffff1673ffffffffffffffffffffffffffffffffffffffff1681526020019081526020015f205f8473ffffffffffffffffffffffffffffffffffffffff1673ffffffffffffffffffffffffffffffffffffffff1681526020019081526020015f205f6101000a81548160ff0219169083151502179055508173ffffffffffffffffffffffffffffffffffffffff168373ffffffffffffffffffffffffffffffffffffffff167f17307eab39ab6107e8899845ad3d59bd9653f200f220920489ca2b5937696c318360405161191591906123d3565b60405180910390a3505050565b5f73ffffffffffffffffffffffffffffffffffffffff168373ffffffffffffffffffffffffffffffffffffffff1603611990576040517f08c379a0000000000000000000000000000000000000000000000000000000008152600401611987906137c1565b60405180910390fd5b5f611999610f08565b90505f6119a584611ddf565b90505f6119b184611ddf565b90506119cf83875f858560405180602001604052805f815250611e57565b5f805f8781526020019081526020015f205f8873ffffffffffffffffffffffffffffffffffffffff1673ffffffffffffffffffffffffffffffffffffffff1681526020019081526020015f2054905084811015611a61576040517f08c379a0000000000000000000000000000000000000000000000000000000008152600401611a589061384f565b60405180910390fd5b8481035f808881526020019081526020015f205f8973ffffffffffffffffffffffffffffffffffffffff1673ffffffffffffffffffffffffffffffffffffffff1681526020019081526020015f20819055505f73ffffffffffffffffffffffffffffffffffffffff168773ffffffffffffffffffffffffffffffffffffffff168573ffffffffffffffffffffffffffffffffffffffff167fc3d58168c5ae7397731d063d5bbf3d657854427343f4c083240f7aacaa2d0f628989604051611b2992919061354b565b60405180910390a4611b4d84885f868660405180602001604052805f815250611e5f565b50505050505050565b5f73ffffffffffffffffffffffffffffffffffffffff168473ffffffffffffffffffffffffffffffffffffffff1603611bc4576040517f08c379a0000000000000000000000000000000000000000000000000000000008152600401611bbb90613670565b60405180910390fd5b5f611bcd610f08565b90505f611bd985611ddf565b90505f611be585611ddf565b9050611bf5838989858589611e57565b5f805f8881526020019081526020015f205f8a73ffffffffffffffffffffffffffffffffffffffff1673ffffffffffffffffffffffffffffffffffffffff1681526020019081526020015f2054905085811015611c87576040517f08c379a0000000000000000000000000000000000000000000000000000000008152600401611c7e906136fe565b60405180910390fd5b8581035f808981526020019081526020015f205f8b73ffffffffffffffffffffffffffffffffffffffff1673ffffffffffffffffffffffffffffffffffffffff1681526020019081526020015f2081905550855f808981526020019081526020015f205f8a73ffffffffffffffffffffffffffffffffffffffff1673ffffffffffffffffffffffffffffffffffffffff1681526020019081526020015f205f828254611d339190613518565b925050819055508773ffffffffffffffffffffffffffffffffffffffff168973ffffffffffffffffffffffffffffffffffffffff168573ffffffffffffffffffffffffffffffffffffffff167fc3d58168c5ae7397731d063d5bbf3d657854427343f4c083240f7aacaa2d0f628a8a604051611db092919061354b565b60405180910390a4611dc6848a8a86868a611e5f565b611dd4848a8a8a8a8a611e67565b505050505050505050565b60605f600167ffffffffffffffff811115611dfd57611dfc612515565b5b604051908082528060200260200182016040528015611e2b5781602001602082028036833780820191505090505b50905082815f81518110611e4257611e41613087565b5b60200260200101818152505080915050919050565b505050505050565b505050505050565b611e868473ffffffffffffffffffffffffffffffffffffffff16612213565b15612035578373ffffffffffffffffffffffffffffffffffffffff1663f23a6e6187878686866040518663ffffffff1660e01b8152600401611ecc95949392919061394d565b6020604051808303815f875af1925050508015611f0757506040513d601f19601f82011682018060405250810190611f0491906139b9565b60015b611fac57611f136139f0565b806308c379a003611f6f5750611f27613a0f565b80611f325750611f71565b806040517f08c379a0000000000000000000000000000000000000000000000000000000008152600401611f669190612476565b60405180910390fd5b505b6040517f08c379a0000000000000000000000000000000000000000000000000000000008152600401611fa390613b0e565b60405180910390fd5b63f23a6e6160e01b7bffffffffffffffffffffffffffffffffffffffffffffffffffffffff1916817bffffffffffffffffffffffffffffffffffffffffffffffffffffffff191614612033576040517f08c379a000000000000000000000000000000000000000000000000000000000815260040161202a90613b9c565b60405180910390fd5b505b505050505050565b61205c8473ffffffffffffffffffffffffffffffffffffffff16612213565b1561220b578373ffffffffffffffffffffffffffffffffffffffff1663bc197c8187878686866040518663ffffffff1660e01b81526004016120a2959493929190613bba565b6020604051808303815f875af19250505080156120dd57506040513d601f19601f820116820180604052508101906120da91906139b9565b60015b612182576120e96139f0565b806308c379a00361214557506120fd613a0f565b806121085750612147565b806040517f08c379a000000000000000000000000000000000000000000000000000000000815260040161213c9190612476565b60405180910390fd5b505b6040517f08c379a000000000000000000000000000000000000000000000000000000000815260040161217990613b0e565b60405180910390fd5b63bc197c8160e01b7bffffffffffffffffffffffffffffffffffffffffffffffffffffffff1916817bffffffffffffffffffffffffffffffffffffffffffffffffffffffff191614612209576040517f08c379a000000000000000000000000000000000000000000000000000000000815260040161220090613b9c565b60405180910390fd5b505b505050505050565b5f808273ffffffffffffffffffffffffffffffffffffffff163b119050919050565b5f604051905090565b5f80fd5b5f80fd5b5f73ffffffffffffffffffffffffffffffffffffffff82169050919050565b5f61226f82612246565b9050919050565b61227f81612265565b8114612289575f80fd5b50565b5f8135905061229a81612276565b92915050565b5f819050919050565b6122b2816122a0565b81146122bc575f80fd5b50565b5f813590506122cd816122a9565b92915050565b5f80604083850312156122e9576122e861223e565b5b5f6122f68582860161228c565b9250506020612307858286016122bf565b9150509250929050565b61231a816122a0565b82525050565b5f6020820190506123335f830184612311565b92915050565b5f7fffffffff0000000000000000000000000000000000000000000000000000000082169050919050565b61236d81612339565b8114612377575f80fd5b50565b5f8135905061238881612364565b92915050565b5f602082840312156123a3576123a261223e565b5b5f6123b08482850161237a565b91505092915050565b5f8115159050919050565b6123cd816123b9565b82525050565b5f6020820190506123e65f8301846123c4565b92915050565b5f81519050919050565b5f82825260208201905092915050565b5f5b83811015612423578082015181840152602081019050612408565b5f8484015250505050565b5f601f19601f8301169050919050565b5f612448826123ec565b61245281856123f6565b9350612462818560208601612406565b61246b8161242e565b840191505092915050565b5f6020820190508181035f83015261248e818461243e565b905092915050565b5f602082840312156124ab576124aa61223e565b5b5f6124b8848285016122bf565b91505092915050565b5f805f606084860312156124d8576124d761223e565b5b5f6124e58682870161228c565b93505060206124f6868287016122bf565b9250506040612507868287016122bf565b9150509250925092565b5f80fd5b7f4e487b71000000000000000000000000000000000000000000000000000000005f52604160045260245ffd5b61254b8261242e565b810181811067ffffffffffffffff8211171561256a57612569612515565b5b80604052505050565b5f61257c612235565b90506125888282612542565b919050565b5f67ffffffffffffffff8211156125a7576125a6612515565b5b602082029050602081019050919050565b5f80fd5b5f6125ce6125c98461258d565b612573565b905080838252602082019050602084028301858111156125f1576125f06125b8565b5b835b8181101561261a578061260688826122bf565b8452602084019350506020810190506125f3565b5050509392505050565b5f82601f83011261263857612637612511565b5b81356126488482602086016125bc565b91505092915050565b5f80fd5b5f67ffffffffffffffff82111561266f5761266e612515565b5b6126788261242e565b9050602081019050919050565b828183375f83830152505050565b5f6126a56126a084612655565b612573565b9050828152602081018484840111156126c1576126c0612651565b5b6126cc848285612685565b509392505050565b5f82601f8301126126e8576126e7612511565b5b81356126f8848260208601612693565b91505092915050565b5f805f805f60a0868803121561271a5761271961223e565b5b5f6127278882890161228c565b95505060206127388882890161228c565b945050604086013567ffffffffffffffff81111561275957612758612242565b5b61276588828901612624565b935050606086013567ffffffffffffffff81111561278657612785612242565b5b61279288828901612624565b925050608086013567ffffffffffffffff8111156127b3576127b2612242565b5b6127bf888289016126d4565b9150509295509295909350565b5f67ffffffffffffffff8211156127e6576127e5612515565b5b602082029050602081019050919050565b5f612809612804846127cc565b612573565b9050808382526020820190506020840283018581111561282c5761282b6125b8565b5b835b818110156128555780612841888261228c565b84526020840193505060208101905061282e565b5050509392505050565b5f82601f83011261287357612872612511565b5b81356128838482602086016127f7565b91505092915050565b5f80604083850312156128a2576128a161223e565b5b5f83013567ffffffffffffffff8111156128bf576128be612242565b5b6128cb8582860161285f565b925050602083013567ffffffffffffffff8111156128ec576128eb612242565b5b6128f885828601612624565b9150509250929050565b5f81519050919050565b5f82825260208201905092915050565b5f819050602082019050919050565b612934816122a0565b82525050565b5f612945838361292b565b60208301905092915050565b5f602082019050919050565b5f61296782612902565b612971818561290c565b935061297c8361291c565b805f5b838110156129ac578151612993888261293a565b975061299e83612951565b92505060018101905061297f565b5085935050505092915050565b5f6020820190508181035f8301526129d1818461295d565b905092915050565b5f805f805f60a086880312156129f2576129f161223e565b5b5f6129ff8882890161228c565b955050602086013567ffffffffffffffff811115612a2057612a1f612242565b5b612a2c88828901612624565b945050604086013567ffffffffffffffff811115612a4d57612a4c612242565b5b612a5988828901612624565b935050606086013567ffffffffffffffff811115612a7a57612a79612242565b5b612a8688828901612624565b925050608086013567ffffffffffffffff811115612aa757612aa6612242565b5b612ab388828901612624565b9150509295509295909350565b5f8060408385031215612ad657612ad561223e565b5b5f83013567ffffffffffffffff811115612af357612af2612242565b5b612aff85828601612624565b925050602083013567ffffffffffffffff811115612b2057612b1f612242565b5b612b2c85828601612624565b9150509250929050565b5f67ffffffffffffffff821115612b5057612b4f612515565b5b612b598261242e565b9050602081019050919050565b5f612b78612b7384612b36565b612573565b905082815260208101848484011115612b9457612b93612651565b5b612b9f848285612685565b509392505050565b5f82601f830112612bbb57612bba612511565b5b8135612bcb848260208601612b66565b91505092915050565b5f8060408385031215612bea57612be961223e565b5b5f612bf7858286016122bf565b925050602083013567ffffffffffffffff811115612c1857612c17612242565b5b612c2485828601612ba7565b9150509250929050565b612c3781612265565b82525050565b5f602082019050612c505f830184612c2e565b92915050565b612c5f816123b9565b8114612c69575f80fd5b50565b5f81359050612c7a81612c56565b92915050565b5f8060408385031215612c9657612c9561223e565b5b5f612ca38582860161228c565b9250506020612cb485828601612c6c565b9150509250929050565b5f8060408385031215612cd457612cd361223e565b5b5f612ce1858286016122bf565b9250506020612cf2858286016122bf565b9150509250929050565b5f805f60608486031215612d1357612d1261223e565b5b5f612d208682870161228c565b935050602084013567ffffffffffffffff811115612d4157612d40612242565b5b612d4d86828701612624565b925050604084013567ffffffffffffffff811115612d6e57612d6d612242565b5b612d7a86828701612624565b9150509250925092565b5f8060408385031215612d9a57612d9961223e565b5b5f612da78582860161228c565b9250506020612db88582860161228c565b9150509250929050565b5f805f805f60a08688031215612ddb57612dda61223e565b5b5f612de88882890161228c565b9550506020612df98882890161228c565b9450506040612e0a888289016122bf565b9350506060612e1b888289016122bf565b925050608086013567ffffffffffffffff811115612e3c57612e3b612242565b5b612e48888289016126d4565b9150509295509295909350565b5f60208284031215612e6a57612e6961223e565b5b5f612e778482850161228c565b91505092915050565b7f455243313135353a2061646472657373207a65726f206973206e6f74206120765f8201527f616c6964206f776e657200000000000000000000000000000000000000000000602082015250565b5f612eda602a836123f6565b9150612ee582612e80565b604082019050919050565b5f6020820190508181035f830152612f0781612ece565b9050919050565b7f4e487b71000000000000000000000000000000000000000000000000000000005f52602260045260245ffd5b5f6002820490506001821680612f5257607f821691505b602082108103612f6557612f64612f0e565b5b50919050565b7f455243313135353a2063616c6c6572206973206e6f7420746f6b656e206f776e5f8201527f6572206f7220617070726f766564000000000000000000000000000000000000602082015250565b5f612fc5602e836123f6565b9150612fd082612f6b565b604082019050919050565b5f6020820190508181035f830152612ff281612fb9565b9050919050565b7f455243313135353a206163636f756e747320616e6420696473206c656e6774685f8201527f206d69736d617463680000000000000000000000000000000000000000000000602082015250565b5f6130536029836123f6565b915061305e82612ff9565b604082019050919050565b5f6020820190508181035f83015261308081613047565b9050919050565b7f4e487b71000000000000000000000000000000000000000000000000000000005f52603260045260245ffd5b7f4e487b71000000000000000000000000000000000000000000000000000000005f52601160045260245ffd5b5f6130eb826122a0565b91507fffffffffffffffffffffffffffffffffffffffffffffffffffffffffffffffff820361311d5761311c6130b4565b5b600182019050919050565b5f819050815f5260205f209050919050565b5f6020601f8301049050919050565b5f82821b905092915050565b5f600883026131847fffffffffffffffffffffffffffffffffffffffffffffffffffffffffffffffff82613149565b61318e8683613149565b95508019841693508086168417925050509392505050565b5f819050919050565b5f6131c96131c46131bf846122a0565b6131a6565b6122a0565b9050919050565b5f819050919050565b6131e2836131af565b6131f66131ee826131d0565b848454613155565b825550505050565b5f90565b61320a6131fe565b6132158184846131d9565b505050565b5b818110156132385761322d5f82613202565b60018101905061321b565b5050565b601f82111561327d5761324e81613128565b6132578461313a565b81016020851015613266578190505b61327a6132728561313a565b83018261321a565b50505b505050565b5f82821c905092915050565b5f61329d5f1984600802613282565b1980831691505092915050565b5f6132b5838361328e565b9150826002028217905092915050565b6132ce826123ec565b67ffffffffffffffff8111156132e7576132e6612515565b5b6132f18254612f3b565b6132fc82828561323c565b5f60209050601f83116001811461332d575f841561331b578287015190505b61332585826132aa565b86555061338c565b601f19841661333b86613128565b5f5b828110156133625784890151825560018201915060208501945060208101905061333d565b8683101561337f578489015161337b601f89168261328e565b8355505b6001600288020188555050505b505050505050565b7f4f776e61626c653a206e6577206f776e657220697320746865207a65726f20615f8201527f6464726573730000000000000000000000000000000000000000000000000000602082015250565b5f6133ee6026836123f6565b91506133f982613394565b604082019050919050565b5f6020820190508181035f83015261341b816133e2565b9050919050565b7f4f776e61626c653a2063616c6c6572206973206e6f7420746865206f776e65725f82015250565b5f6134566020836123f6565b915061346182613422565b602082019050919050565b5f6020820190508181035f8301526134838161344a565b9050919050565b7f455243313135353a206d696e7420746f20746865207a65726f206164647265735f8201527f7300000000000000000000000000000000000000000000000000000000000000602082015250565b5f6134e46021836123f6565b91506134ef8261348a565b604082019050919050565b5f6020820190508181035f830152613511816134d8565b9050919050565b5f613522826122a0565b915061352d836122a0565b9250828201905080821115613545576135446130b4565b5b92915050565b5f60408201905061355e5f830185612311565b61356b6020830184612311565b9392505050565b7f455243313135353a2069647320616e6420616d6f756e7473206c656e677468205f8201527f6d69736d61746368000000000000000000000000000000000000000000000000602082015250565b5f6135cc6028836123f6565b91506135d782613572565b604082019050919050565b5f6020820190508181035f8301526135f9816135c0565b9050919050565b7f455243313135353a207472616e7366657220746f20746865207a65726f2061645f8201527f6472657373000000000000000000000000000000000000000000000000000000602082015250565b5f61365a6025836123f6565b915061366582613600565b604082019050919050565b5f6020820190508181035f8301526136878161364e565b9050919050565b7f455243313135353a20696e73756666696369656e742062616c616e636520666f5f8201527f72207472616e7366657200000000000000000000000000000000000000000000602082015250565b5f6136e8602a836123f6565b91506136f38261368e565b604082019050919050565b5f6020820190508181035f830152613715816136dc565b9050919050565b5f6040820190508181035f830152613734818561295d565b90508181036020830152613748818461295d565b90509392505050565b7f455243313135353a206275726e2066726f6d20746865207a65726f20616464725f8201527f6573730000000000000000000000000000000000000000000000000000000000602082015250565b5f6137ab6023836123f6565b91506137b682613751565b604082019050919050565b5f6020820190508181035f8301526137d88161379f565b9050919050565b7f455243313135353a206275726e20616d6f756e7420657863656564732062616c5f8201527f616e636500000000000000000000000000000000000000000000000000000000602082015250565b5f6138396024836123f6565b9150613844826137df565b604082019050919050565b5f6020820190508181035f8301526138668161382d565b9050919050565b7f455243313135353a2073657474696e6720617070726f76616c207374617475735f8201527f20666f722073656c660000000000000000000000000000000000000000000000602082015250565b5f6138c76029836123f6565b91506138d28261386d565b604082019050919050565b5f6020820190508181035f8301526138f4816138bb565b9050919050565b5f81519050919050565b5f82825260208201905092915050565b5f61391f826138fb565b6139298185613905565b9350613939818560208601612406565b6139428161242e565b840191505092915050565b5f60a0820190506139605f830188612c2e565b61396d6020830187612c2e565b61397a6040830186612311565b6139876060830185612311565b81810360808301526139998184613915565b90509695505050505050565b5f815190506139b381612364565b92915050565b5f602082840312156139ce576139cd61223e565b5b5f6139db848285016139a5565b91505092915050565b5f8160e01c9050919050565b5f60033d1115613a0c5760045f803e613a095f516139e4565b90505b90565b5f60443d10613a9b57613a20612235565b60043d036004823e80513d602482011167ffffffffffffffff82111715613a48575050613a9b565b808201805167ffffffffffffffff811115613a665750505050613a9b565b80602083010160043d038501811115613a83575050505050613a9b565b613a9282602001850186612542565b82955050505050505b90565b7f455243313135353a207472616e7366657220746f206e6f6e2d455243313135355f8201527f526563656976657220696d706c656d656e746572000000000000000000000000602082015250565b5f613af86034836123f6565b9150613b0382613a9e565b604082019050919050565b5f6020820190508181035f830152613b2581613aec565b9050919050565b7f455243313135353a204552433131353552656365697665722072656a656374655f8201527f6420746f6b656e73000000000000000000000000000000000000000000000000602082015250565b5f613b866028836123f6565b9150613b9182613b2c565b604082019050919050565b5f6020820190508181035f830152613bb381613b7a565b9050919050565b5f60a082019050613bcd5f830188612c2e565b613bda6020830187612c2e565b8181036040830152613bec818661295d565b90508181036060830152613c00818561295d565b90508181036080830152613c148184613915565b9050969550505050505056fea2646970667358221220d8212cb57a4bab60f39a2a3bfaa0663341b470aa199caf27770267d9eb8a8d6664736f6c63430008140033",
			"opcodes": "PUSH1 0x80 PUSH1 0x40 MSTORE CALLVALUE DUP1 ISZERO PUSH3 0x10 JUMPI PUSH0 DUP1 REVERT JUMPDEST POP PUSH1 0x40 MLOAD DUP1 PUSH1 0x20 ADD PUSH1 0x40 MSTORE DUP1 PUSH0 DUP2 MSTORE POP PUSH3 0x31 DUP2 PUSH3 0xE6 PUSH1 0x20 SHL PUSH1 0x20 SHR JUMP JUMPDEST POP PUSH3 0x52 PUSH3 0x46 PUSH3 0xFB PUSH1 0x20 SHL PUSH1 0x20 SHR JUMP JUMPDEST PUSH3 0x102 PUSH1 0x20 SHL PUSH1 0x20 SHR JUMP JUMPDEST PUSH1 0x40 MLOAD DUP1 PUSH1 0x40 ADD PUSH1 0x40 MSTORE DUP1 PUSH1 0x9 DUP2 MSTORE PUSH1 0x20 ADD PUSH32 0x486173684974656D730000000000000000000000000000000000000000000000 DUP2 MSTORE POP PUSH1 0x4 SWAP1 DUP2 PUSH3 0x98 SWAP2 SWAP1 PUSH3 0x429 JUMP JUMPDEST POP PUSH1 0x40 MLOAD DUP1 PUSH1 0x40 ADD PUSH1 0x40 MSTORE DUP1 PUSH1 0x9 DUP2 MSTORE PUSH1 0x20 ADD PUSH32 0x484153484954454D530000000000000000000000000000000000000000000000 DUP2 MSTORE POP PUSH1 0x5 SWAP1 DUP2 PUSH3 0xDF SWAP2 SWAP1 PUSH3 0x429 JUMP JUMPDEST POP PUSH3 0x50D JUMP JUMPDEST DUP1 PUSH1 0x2 SWAP1 DUP2 PUSH3 0xF7 SWAP2 SWAP1 PUSH3 0x429 JUMP JUMPDEST POP POP JUMP JUMPDEST PUSH0 CALLER SWAP1 POP SWAP1 JUMP JUMPDEST PUSH0 PUSH1 0x3 PUSH0 SWAP1 SLOAD SWAP1 PUSH2 0x100 EXP SWAP1 DIV PUSH20 0xFFFFFFFFFFFFFFFFFFFFFFFFFFFFFFFFFFFFFFFF AND SWAP1 POP DUP2 PUSH1 0x3 PUSH0 PUSH2 0x100 EXP DUP2 SLOAD DUP2 PUSH20 0xFFFFFFFFFFFFFFFFFFFFFFFFFFFFFFFFFFFFFFFF MUL NOT AND SWAP1 DUP4 PUSH20 0xFFFFFFFFFFFFFFFFFFFFFFFFFFFFFFFFFFFFFFFF AND MUL OR SWAP1 SSTORE POP DUP2 PUSH20 0xFFFFFFFFFFFFFFFFFFFFFFFFFFFFFFFFFFFFFFFF AND DUP2 PUSH20 0xFFFFFFFFFFFFFFFFFFFFFFFFFFFFFFFFFFFFFFFF AND PUSH32 0x8BE0079C531659141344CD1FD0A4F28419497F9722A3DAAFE3B4186F6B6457E0 PUSH1 0x40 MLOAD PUSH1 0x40 MLOAD DUP1 SWAP2 SUB SWAP1 LOG3 POP POP JUMP JUMPDEST PUSH0 DUP2 MLOAD SWAP1 POP SWAP2 SWAP1 POP JUMP JUMPDEST PUSH32 0x4E487B7100000000000000000000000000000000000000000000000000000000 PUSH0 MSTORE PUSH1 0x41 PUSH1 0x4 MSTORE PUSH1 0x24 PUSH0 REVERT JUMPDEST PUSH32 0x4E487B7100000000000000000000000000000000000000000000000000000000 PUSH0 MSTORE PUSH1 0x22 PUSH1 0x4 MSTORE PUSH1 0x24 PUSH0 REVERT JUMPDEST PUSH0 PUSH1 0x2 DUP3 DIV SWAP1 POP PUSH1 0x1 DUP3 AND DUP1 PUSH3 0x241 JUMPI PUSH1 0x7F DUP3 AND SWAP2 POP JUMPDEST PUSH1 0x20 DUP3 LT DUP2 SUB PUSH3 0x257 JUMPI PUSH3 0x256 PUSH3 0x1FC JUMP JUMPDEST JUMPDEST POP SWAP2 SWAP1 POP JUMP JUMPDEST PUSH0 DUP2 SWAP1 POP DUP2 PUSH0 MSTORE PUSH1 0x20 PUSH0 KECCAK256 SWAP1 POP SWAP2 SWAP1 POP JUMP JUMPDEST PUSH0 PUSH1 0x20 PUSH1 0x1F DUP4 ADD DIV SWAP1 POP SWAP2 SWAP1 POP JUMP JUMPDEST PUSH0 DUP3 DUP3 SHL SWAP1 POP SWAP3 SWAP2 POP POP JUMP JUMPDEST PUSH0 PUSH1 0x8 DUP4 MUL PUSH3 0x2BB PUSH32 0xFFFFFFFFFFFFFFFFFFFFFFFFFFFFFFFFFFFFFFFFFFFFFFFFFFFFFFFFFFFFFFFF DUP3 PUSH3 0x27E JUMP JUMPDEST PUSH3 0x2C7 DUP7 DUP4 PUSH3 0x27E JUMP JUMPDEST SWAP6 POP DUP1 NOT DUP5 AND SWAP4 POP DUP1 DUP7 AND DUP5 OR SWAP3 POP POP POP SWAP4 SWAP3 POP POP POP JUMP JUMPDEST PUSH0 DUP2 SWAP1 POP SWAP2 SWAP1 POP JUMP JUMPDEST PUSH0 DUP2 SWAP1 POP SWAP2 SWAP1 POP JUMP JUMPDEST PUSH0 PUSH3 0x311 PUSH3 0x30B PUSH3 0x305 DUP5 PUSH3 0x2DF JUMP JUMPDEST PUSH3 0x2E8 JUMP JUMPDEST PUSH3 0x2DF JUMP JUMPDEST SWAP1 POP SWAP2 SWAP1 POP JUMP JUMPDEST PUSH0 DUP2 SWAP1 POP SWAP2 SWAP1 POP JUMP JUMPDEST PUSH3 0x32C DUP4 PUSH3 0x2F1 JUMP JUMPDEST PUSH3 0x344 PUSH3 0x33B DUP3 PUSH3 0x318 JUMP JUMPDEST DUP5 DUP5 SLOAD PUSH3 0x28A JUMP JUMPDEST DUP3 SSTORE POP POP POP POP JUMP JUMPDEST PUSH0 SWAP1 JUMP JUMPDEST PUSH3 0x35A PUSH3 0x34C JUMP JUMPDEST PUSH3 0x367 DUP2 DUP5 DUP5 PUSH3 0x321 JUMP JUMPDEST POP POP POP JUMP JUMPDEST JUMPDEST DUP2 DUP2 LT ISZERO PUSH3 0x38E JUMPI PUSH3 0x382 PUSH0 DUP3 PUSH3 0x350 JUMP JUMPDEST PUSH1 0x1 DUP2 ADD SWAP1 POP PUSH3 0x36D JUMP JUMPDEST POP POP JUMP JUMPDEST PUSH1 0x1F DUP3 GT ISZERO PUSH3 0x3DD JUMPI PUSH3 0x3A7 DUP2 PUSH3 0x25D JUMP JUMPDEST PUSH3 0x3B2 DUP5 PUSH3 0x26F JUMP JUMPDEST DUP2 ADD PUSH1 0x20 DUP6 LT ISZERO PUSH3 0x3C2 JUMPI DUP2 SWAP1 POP JUMPDEST PUSH3 0x3DA PUSH3 0x3D1 DUP6 PUSH3 0x26F JUMP JUMPDEST DUP4 ADD DUP3 PUSH3 0x36C JUMP JUMPDEST POP POP JUMPDEST POP POP POP JUMP JUMPDEST PUSH0 DUP3 DUP3 SHR SWAP1 POP SWAP3 SWAP2 POP POP JUMP JUMPDEST PUSH0 PUSH3 0x3FF PUSH0 NOT DUP5 PUSH1 0x8 MUL PUSH3 0x3E2 JUMP JUMPDEST NOT DUP1 DUP4 AND SWAP2 POP POP SWAP3 SWAP2 POP POP JUMP JUMPDEST PUSH0 PUSH3 0x419 DUP4 DUP4 PUSH3 0x3EE JUMP JUMPDEST SWAP2 POP DUP3 PUSH1 0x2 MUL DUP3 OR SWAP1 POP SWAP3 SWAP2 POP POP JUMP JUMPDEST PUSH3 0x434 DUP3 PUSH3 0x1C5 JUMP JUMPDEST PUSH8 0xFFFFFFFFFFFFFFFF DUP2 GT ISZERO PUSH3 0x450 JUMPI PUSH3 0x44F PUSH3 0x1CF JUMP JUMPDEST JUMPDEST PUSH3 0x45C DUP3 SLOAD PUSH3 0x229 JUMP JUMPDEST PUSH3 0x469 DUP3 DUP3 DUP6 PUSH3 0x392 JUMP JUMPDEST PUSH0 PUSH1 0x20 SWAP1 POP PUSH1 0x1F DUP4 GT PUSH1 0x1 DUP2 EQ PUSH3 0x49F JUMPI PUSH0 DUP5 ISZERO PUSH3 0x48A JUMPI DUP3 DUP8 ADD MLOAD SWAP1 POP JUMPDEST PUSH3 0x496 DUP6 DUP3 PUSH3 0x40C JUMP JUMPDEST DUP7 SSTORE POP PUSH3 0x505 JUMP JUMPDEST PUSH1 0x1F NOT DUP5 AND PUSH3 0x4AF DUP7 PUSH3 0x25D JUMP JUMPDEST PUSH0 JUMPDEST DUP3 DUP2 LT ISZERO PUSH3 0x4D8 JUMPI DUP5 DUP10 ADD MLOAD DUP3 SSTORE PUSH1 0x1 DUP3 ADD SWAP2 POP PUSH1 0x20 DUP6 ADD SWAP5 POP PUSH1 0x20 DUP2 ADD SWAP1 POP PUSH3 0x4B1 JUMP JUMPDEST DUP7 DUP4 LT ISZERO PUSH3 0x4F8 JUMPI DUP5 DUP10 ADD MLOAD PUSH3 0x4F4 PUSH1 0x1F DUP10 AND DUP3 PUSH3 0x3EE JUMP JUMPDEST DUP4 SSTORE POP JUMPDEST PUSH1 0x1 PUSH1 0x2 DUP9 MUL ADD DUP9 SSTORE POP POP POP JUMPDEST POP POP POP POP POP POP JUMP JUMPDEST PUSH2 0x3C56 DUP1 PUSH3 0x51B PUSH0 CODECOPY PUSH0 RETURN INVALID PUSH1 0x80 PUSH1 0x40 MSTORE CALLVALUE DUP1 ISZERO PUSH2 0xF JUMPI PUSH0 DUP1 REVERT JUMPDEST POP PUSH1 0x4 CALLDATASIZE LT PUSH2 0x129 JUMPI PUSH0 CALLDATALOAD PUSH1 0xE0 SHR DUP1 PUSH4 0x862440E2 GT PUSH2 0xAB JUMPI DUP1 PUSH4 0xC87B56DD GT PUSH2 0x6F JUMPI DUP1 PUSH4 0xC87B56DD EQ PUSH2 0x315 JUMPI DUP1 PUSH4 0xD81D0A15 EQ PUSH2 0x345 JUMPI DUP1 PUSH4 0xE985E9C5 EQ PUSH2 0x361 JUMPI DUP1 PUSH4 0xF242432A EQ PUSH2 0x391 JUMPI DUP1 PUSH4 0xF2FDE38B EQ PUSH2 0x3AD JUMPI PUSH2 0x129 JUMP JUMPDEST DUP1 PUSH4 0x862440E2 EQ PUSH2 0x285 JUMPI DUP1 PUSH4 0x8DA5CB5B EQ PUSH2 0x2A1 JUMPI DUP1 PUSH4 0x95D89B41 EQ PUSH2 0x2BF JUMPI DUP1 PUSH4 0xA22CB465 EQ PUSH2 0x2DD JUMPI DUP1 PUSH4 0xB390C0AB EQ PUSH2 0x2F9 JUMPI PUSH2 0x129 JUMP JUMPDEST DUP1 PUSH4 0x2EB2C2D6 GT PUSH2 0xF2 JUMPI DUP1 PUSH4 0x2EB2C2D6 EQ PUSH2 0x1F7 JUMPI DUP1 PUSH4 0x4E1273F4 EQ PUSH2 0x213 JUMPI DUP1 PUSH4 0x510F4104 EQ PUSH2 0x243 JUMPI DUP1 PUSH4 0x715018A6 EQ PUSH2 0x25F JUMPI DUP1 PUSH4 0x83CA4B6F EQ PUSH2 0x269 JUMPI PUSH2 0x129 JUMP JUMPDEST DUP1 PUSH3 0xFDD58E EQ PUSH2 0x12D JUMPI DUP1 PUSH4 0x1FFC9A7 EQ PUSH2 0x15D JUMPI DUP1 PUSH4 0x6FDDE03 EQ PUSH2 0x18D JUMPI DUP1 PUSH4 0xE89341C EQ PUSH2 0x1AB JUMPI DUP1 PUSH4 0x156E29F6 EQ PUSH2 0x1DB JUMPI JUMPDEST PUSH0 DUP1 REVERT JUMPDEST PUSH2 0x147 PUSH1 0x4 DUP1 CALLDATASIZE SUB DUP2 ADD SWAP1 PUSH2 0x142 SWAP2 SWAP1 PUSH2 0x22D3 JUMP JUMPDEST PUSH2 0x3C9 JUMP JUMPDEST PUSH1 0x40 MLOAD PUSH2 0x154 SWAP2 SWAP1 PUSH2 0x2320 JUMP JUMPDEST PUSH1 0x40 MLOAD DUP1 SWAP2 SUB SWAP1 RETURN JUMPDEST PUSH2 0x177 PUSH1 0x4 DUP1 CALLDATASIZE SUB DUP2 ADD SWAP1 PUSH2 0x172 SWAP2 SWAP1 PUSH2 0x238E JUMP JUMPDEST PUSH2 0x48C JUMP JUMPDEST PUSH1 0x40 MLOAD PUSH2 0x184 SWAP2 SWAP1 PUSH2 0x23D3 JUMP JUMPDEST PUSH1 0x40 MLOAD DUP1 SWAP2 SUB SWAP1 RETURN JUMPDEST PUSH2 0x195 PUSH2 0x56D JUMP JUMPDEST PUSH1 0x40 MLOAD PUSH2 0x1A2 SWAP2 SWAP1 PUSH2 0x2476 JUMP JUMPDEST PUSH1 0x40 MLOAD DUP1 SWAP2 SUB SWAP1 RETURN JUMPDEST PUSH2 0x1C5 PUSH1 0x4 DUP1 CALLDATASIZE SUB DUP2 ADD SWAP1 PUSH2 0x1C0 SWAP2 SWAP1 PUSH2 0x2496 JUMP JUMPDEST PUSH2 0x5F9 JUMP JUMPDEST PUSH1 0x40 MLOAD PUSH2 0x1D2 SWAP2 SWAP1 PUSH2 0x2476 JUMP JUMPDEST PUSH1 0x40 MLOAD DUP1 SWAP2 SUB SWAP1 RETURN JUMPDEST PUSH2 0x1F5 PUSH1 0x4 DUP1 CALLDATASIZE SUB DUP2 ADD SWAP1 PUSH2 0x1F0 SWAP2 SWAP1 PUSH2 0x24C1 JUMP JUMPDEST PUSH2 0x69A JUMP JUMPDEST STOP JUMPDEST PUSH2 0x211 PUSH1 0x4 DUP1 CALLDATASIZE SUB DUP2 ADD SWAP1 PUSH2 0x20C SWAP2 SWAP1 PUSH2 0x2701 JUMP JUMPDEST PUSH2 0x6C1 JUMP JUMPDEST STOP JUMPDEST PUSH2 0x22D PUSH1 0x4 DUP1 CALLDATASIZE SUB DUP2 ADD SWAP1 PUSH2 0x228 SWAP2 SWAP1 PUSH2 0x288C JUMP JUMPDEST PUSH2 0x762 JUMP JUMPDEST PUSH1 0x40 MLOAD PUSH2 0x23A SWAP2 SWAP1 PUSH2 0x29B9 JUMP JUMPDEST PUSH1 0x40 MLOAD DUP1 SWAP2 SUB SWAP1 RETURN JUMPDEST PUSH2 0x25D PUSH1 0x4 DUP1 CALLDATASIZE SUB DUP2 ADD SWAP1 PUSH2 0x258 SWAP2 SWAP1 PUSH2 0x29D9 JUMP JUMPDEST PUSH2 0x879 JUMP JUMPDEST STOP JUMPDEST PUSH2 0x267 PUSH2 0x8AD JUMP JUMPDEST STOP JUMPDEST PUSH2 0x283 PUSH1 0x4 DUP1 CALLDATASIZE SUB DUP2 ADD SWAP1 PUSH2 0x27E SWAP2 SWAP1 PUSH2 0x2AC0 JUMP JUMPDEST PUSH2 0x8C0 JUMP JUMPDEST STOP JUMPDEST PUSH2 0x29F PUSH1 0x4 DUP1 CALLDATASIZE SUB DUP2 ADD SWAP1 PUSH2 0x29A SWAP2 SWAP1 PUSH2 0x2BD4 JUMP JUMPDEST PUSH2 0x8CF JUMP JUMPDEST STOP JUMPDEST PUSH2 0x2A9 PUSH2 0x932 JUMP JUMPDEST PUSH1 0x40 MLOAD PUSH2 0x2B6 SWAP2 SWAP1 PUSH2 0x2C3D JUMP JUMPDEST PUSH1 0x40 MLOAD DUP1 SWAP2 SUB SWAP1 RETURN JUMPDEST PUSH2 0x2C7 PUSH2 0x95A JUMP JUMPDEST PUSH1 0x40 MLOAD PUSH2 0x2D4 SWAP2 SWAP1 PUSH2 0x2476 JUMP JUMPDEST PUSH1 0x40 MLOAD DUP1 SWAP2 SUB SWAP1 RETURN JUMPDEST PUSH2 0x2F7 PUSH1 0x4 DUP1 CALLDATASIZE SUB DUP2 ADD SWAP1 PUSH2 0x2F2 SWAP2 SWAP1 PUSH2 0x2C80 JUMP JUMPDEST PUSH2 0x9E6 JUMP JUMPDEST STOP JUMPDEST PUSH2 0x313 PUSH1 0x4 DUP1 CALLDATASIZE SUB DUP2 ADD SWAP1 PUSH2 0x30E SWAP2 SWAP1 PUSH2 0x2CBE JUMP JUMPDEST PUSH2 0x9FC JUMP JUMPDEST STOP JUMPDEST PUSH2 0x32F PUSH1 0x4 DUP1 CALLDATASIZE SUB DUP2 ADD SWAP1 PUSH2 0x32A SWAP2 SWAP1 PUSH2 0x2496 JUMP JUMPDEST PUSH2 0xA0B JUMP JUMPDEST PUSH1 0x40 MLOAD PUSH2 0x33C SWAP2 SWAP1 PUSH2 0x2476 JUMP JUMPDEST PUSH1 0x40 MLOAD DUP1 SWAP2 SUB SWAP1 RETURN JUMPDEST PUSH2 0x35F PUSH1 0x4 DUP1 CALLDATASIZE SUB DUP2 ADD SWAP1 PUSH2 0x35A SWAP2 SWAP1 PUSH2 0x2CFC JUMP JUMPDEST PUSH2 0xAA6 JUMP JUMPDEST STOP JUMPDEST PUSH2 0x37B PUSH1 0x4 DUP1 CALLDATASIZE SUB DUP2 ADD SWAP1 PUSH2 0x376 SWAP2 SWAP1 PUSH2 0x2D84 JUMP JUMPDEST PUSH2 0xACD JUMP JUMPDEST PUSH1 0x40 MLOAD PUSH2 0x388 SWAP2 SWAP1 PUSH2 0x23D3 JUMP JUMPDEST PUSH1 0x40 MLOAD DUP1 SWAP2 SUB SWAP1 RETURN JUMPDEST PUSH2 0x3AB PUSH1 0x4 DUP1 CALLDATASIZE SUB DUP2 ADD SWAP1 PUSH2 0x3A6 SWAP2 SWAP1 PUSH2 0x2DC2 JUMP JUMPDEST PUSH2 0xB5B JUMP JUMPDEST STOP JUMPDEST PUSH2 0x3C7 PUSH1 0x4 DUP1 CALLDATASIZE SUB DUP2 ADD SWAP1 PUSH2 0x3C2 SWAP2 SWAP1 PUSH2 0x2E55 JUMP JUMPDEST PUSH2 0xBFC JUMP JUMPDEST STOP JUMPDEST PUSH0 DUP1 PUSH20 0xFFFFFFFFFFFFFFFFFFFFFFFFFFFFFFFFFFFFFFFF AND DUP4 PUSH20 0xFFFFFFFFFFFFFFFFFFFFFFFFFFFFFFFFFFFFFFFF AND SUB PUSH2 0x438 JUMPI PUSH1 0x40 MLOAD PUSH32 0x8C379A000000000000000000000000000000000000000000000000000000000 DUP2 MSTORE PUSH1 0x4 ADD PUSH2 0x42F SWAP1 PUSH2 0x2EF0 JUMP JUMPDEST PUSH1 0x40 MLOAD DUP1 SWAP2 SUB SWAP1 REVERT JUMPDEST PUSH0 DUP1 DUP4 DUP2 MSTORE PUSH1 0x20 ADD SWAP1 DUP2 MSTORE PUSH1 0x20 ADD PUSH0 KECCAK256 PUSH0 DUP5 PUSH20 0xFFFFFFFFFFFFFFFFFFFFFFFFFFFFFFFFFFFFFFFF AND PUSH20 0xFFFFFFFFFFFFFFFFFFFFFFFFFFFFFFFFFFFFFFFF AND DUP2 MSTORE PUSH1 0x20 ADD SWAP1 DUP2 MSTORE PUSH1 0x20 ADD PUSH0 KECCAK256 SLOAD SWAP1 POP SWAP3 SWAP2 POP POP JUMP JUMPDEST PUSH0 PUSH32 0xD9B67A2600000000000000000000000000000000000000000000000000000000 PUSH28 0xFFFFFFFFFFFFFFFFFFFFFFFFFFFFFFFFFFFFFFFFFFFFFFFFFFFFFFFF NOT AND DUP3 PUSH28 0xFFFFFFFFFFFFFFFFFFFFFFFFFFFFFFFFFFFFFFFFFFFFFFFFFFFFFFFF NOT AND EQ DUP1 PUSH2 0x556 JUMPI POP PUSH32 0xE89341C00000000000000000000000000000000000000000000000000000000 PUSH28 0xFFFFFFFFFFFFFFFFFFFFFFFFFFFFFFFFFFFFFFFFFFFFFFFFFFFFFFFF NOT AND DUP3 PUSH28 0xFFFFFFFFFFFFFFFFFFFFFFFFFFFFFFFFFFFFFFFFFFFFFFFFFFFFFFFF NOT AND EQ JUMPDEST DUP1 PUSH2 0x566 JUMPI POP PUSH2 0x565 DUP3 PUSH2 0xC7E JUMP JUMPDEST JUMPDEST SWAP1 POP SWAP2 SWAP1 POP JUMP JUMPDEST PUSH1 0x4 DUP1 SLOAD PUSH2 0x57A SWAP1 PUSH2 0x2F3B JUMP JUMPDEST DUP1 PUSH1 0x1F ADD PUSH1 0x20 DUP1 SWAP2 DIV MUL PUSH1 0x20 ADD PUSH1 0x40 MLOAD SWAP1 DUP2 ADD PUSH1 0x40 MSTORE DUP1 SWAP3 SWAP2 SWAP1 DUP2 DUP2 MSTORE PUSH1 0x20 ADD DUP3 DUP1 SLOAD PUSH2 0x5A6 SWAP1 PUSH2 0x2F3B JUMP JUMPDEST DUP1 ISZERO PUSH2 0x5F1 JUMPI DUP1 PUSH1 0x1F LT PUSH2 0x5C8 JUMPI PUSH2 0x100 DUP1 DUP4 SLOAD DIV MUL DUP4 MSTORE SWAP2 PUSH1 0x20 ADD SWAP2 PUSH2 0x5F1 JUMP JUMPDEST DUP3 ADD SWAP2 SWAP1 PUSH0 MSTORE PUSH1 0x20 PUSH0 KECCAK256 SWAP1 JUMPDEST DUP2 SLOAD DUP2 MSTORE SWAP1 PUSH1 0x1 ADD SWAP1 PUSH1 0x20 ADD DUP1 DUP4 GT PUSH2 0x5D4 JUMPI DUP3 SWAP1 SUB PUSH1 0x1F AND DUP3 ADD SWAP2 JUMPDEST POP POP POP POP POP DUP2 JUMP JUMPDEST PUSH1 0x60 PUSH1 0x6 PUSH0 DUP4 DUP2 MSTORE PUSH1 0x20 ADD SWAP1 DUP2 MSTORE PUSH1 0x20 ADD PUSH0 KECCAK256 DUP1 SLOAD PUSH2 0x617 SWAP1 PUSH2 0x2F3B JUMP JUMPDEST DUP1 PUSH1 0x1F ADD PUSH1 0x20 DUP1 SWAP2 DIV MUL PUSH1 0x20 ADD PUSH1 0x40 MLOAD SWAP1 DUP2 ADD PUSH1 0x40 MSTORE DUP1 SWAP3 SWAP2 SWAP1 DUP2 DUP2 MSTORE PUSH1 0x20 ADD DUP3 DUP1 SLOAD PUSH2 0x643 SWAP1 PUSH2 0x2F3B JUMP JUMPDEST DUP1 ISZERO PUSH2 0x68E JUMPI DUP1 PUSH1 0x1F LT PUSH2 0x665 JUMPI PUSH2 0x100 DUP1 DUP4 SLOAD DIV MUL DUP4 MSTORE SWAP2 PUSH1 0x20 ADD SWAP2 PUSH2 0x68E JUMP JUMPDEST DUP3 ADD SWAP2 SWAP1 PUSH0 MSTORE PUSH1 0x20 PUSH0 KECCAK256 SWAP1 JUMPDEST DUP2 SLOAD DUP2 MSTORE SWAP1 PUSH1 0x1 ADD SWAP1 PUSH1 0x20 ADD DUP1 DUP4 GT PUSH2 0x671 JUMPI DUP3 SWAP1 SUB PUSH1 0x1F AND DUP3 ADD SWAP2 JUMPDEST POP POP POP POP POP SWAP1 POP SWAP2 SWAP1 POP JUMP JUMPDEST PUSH2 0x6A2 PUSH2 0xCE7 JUMP JUMPDEST PUSH2 0x6BC DUP4 DUP4 DUP4 PUSH1 0x40 MLOAD DUP1 PUSH1 0x20 ADD PUSH1 0x40 MSTORE DUP1 PUSH0 DUP2 MSTORE POP PUSH2 0xD65 JUMP JUMPDEST POP POP POP JUMP JUMPDEST PUSH2 0x6C9 PUSH2 0xF08 JUMP JUMPDEST PUSH20 0xFFFFFFFFFFFFFFFFFFFFFFFFFFFFFFFFFFFFFFFF AND DUP6 PUSH20 0xFFFFFFFFFFFFFFFFFFFFFFFFFFFFFFFFFFFFFFFF AND EQ DUP1 PUSH2 0x70F JUMPI POP PUSH2 0x70E DUP6 PUSH2 0x709 PUSH2 0xF08 JUMP JUMPDEST PUSH2 0xACD JUMP JUMPDEST JUMPDEST PUSH2 0x74E JUMPI PUSH1 0x40 MLOAD PUSH32 0x8C379A000000000000000000000000000000000000000000000000000000000 DUP2 MSTORE PUSH1 0x4 ADD PUSH2 0x745 SWAP1 PUSH2 0x2FDB JUMP JUMPDEST PUSH1 0x40 MLOAD DUP1 SWAP2 SUB SWAP1 REVERT JUMPDEST PUSH2 0x75B DUP6 DUP6 DUP6 DUP6 DUP6 PUSH2 0xF0F JUMP JUMPDEST POP POP POP POP POP JUMP JUMPDEST PUSH1 0x60 DUP2 MLOAD DUP4 MLOAD EQ PUSH2 0x7A8 JUMPI PUSH1 0x40 MLOAD PUSH32 0x8C379A000000000000000000000000000000000000000000000000000000000 DUP2 MSTORE PUSH1 0x4 ADD PUSH2 0x79F SWAP1 PUSH2 0x3069 JUMP JUMPDEST PUSH1 0x40 MLOAD DUP1 SWAP2 SUB SWAP1 REVERT JUMPDEST PUSH0 DUP4 MLOAD PUSH8 0xFFFFFFFFFFFFFFFF DUP2 GT ISZERO PUSH2 0x7C4 JUMPI PUSH2 0x7C3 PUSH2 0x2515 JUMP JUMPDEST JUMPDEST PUSH1 0x40 MLOAD SWAP1 DUP1 DUP3 MSTORE DUP1 PUSH1 0x20 MUL PUSH1 0x20 ADD DUP3 ADD PUSH1 0x40 MSTORE DUP1 ISZERO PUSH2 0x7F2 JUMPI DUP2 PUSH1 0x20 ADD PUSH1 0x20 DUP3 MUL DUP1 CALLDATASIZE DUP4 CALLDATACOPY DUP1 DUP3 ADD SWAP2 POP POP SWAP1 POP JUMPDEST POP SWAP1 POP PUSH0 JUMPDEST DUP5 MLOAD DUP2 LT ISZERO PUSH2 0x86E JUMPI PUSH2 0x83E DUP6 DUP3 DUP2 MLOAD DUP2 LT PUSH2 0x816 JUMPI PUSH2 0x815 PUSH2 0x3087 JUMP JUMPDEST JUMPDEST PUSH1 0x20 MUL PUSH1 0x20 ADD ADD MLOAD DUP6 DUP4 DUP2 MLOAD DUP2 LT PUSH2 0x831 JUMPI PUSH2 0x830 PUSH2 0x3087 JUMP JUMPDEST JUMPDEST PUSH1 0x20 MUL PUSH1 0x20 ADD ADD MLOAD PUSH2 0x3C9 JUMP JUMPDEST DUP3 DUP3 DUP2 MLOAD DUP2 LT PUSH2 0x851 JUMPI PUSH2 0x850 PUSH2 0x3087 JUMP JUMPDEST JUMPDEST PUSH1 0x20 MUL PUSH1 0x20 ADD ADD DUP2 DUP2 MSTORE POP POP DUP1 PUSH2 0x867 SWAP1 PUSH2 0x30E1 JUMP JUMPDEST SWAP1 POP PUSH2 0x7F7 JUMP JUMPDEST POP DUP1 SWAP2 POP POP SWAP3 SWAP2 POP POP JUMP JUMPDEST PUSH2 0x881 PUSH2 0xCE7 JUMP JUMPDEST PUSH2 0x88C DUP6 DUP6 DUP6 PUSH2 0x121D JUMP JUMPDEST PUSH2 0x8A6 DUP6 DUP4 DUP4 PUSH1 0x40 MLOAD DUP1 PUSH1 0x20 ADD PUSH1 0x40 MSTORE DUP1 PUSH0 DUP2 MSTORE POP PUSH2 0x14D8 JUMP JUMPDEST POP POP POP POP POP JUMP JUMPDEST PUSH2 0x8B5 PUSH2 0xCE7 JUMP JUMPDEST PUSH2 0x8BE PUSH0 PUSH2 0x16F8 JUMP JUMPDEST JUMP JUMPDEST PUSH2 0x8CB CALLER DUP4 DUP4 PUSH2 0x121D JUMP JUMPDEST POP POP JUMP JUMPDEST PUSH2 0x8D7 PUSH2 0xCE7 JUMP JUMPDEST DUP1 PUSH1 0x6 PUSH0 DUP5 DUP2 MSTORE PUSH1 0x20 ADD SWAP1 DUP2 MSTORE PUSH1 0x20 ADD PUSH0 KECCAK256 SWAP1 DUP2 PUSH2 0x8F5 SWAP2 SWAP1 PUSH2 0x32C5 JUMP JUMPDEST POP DUP2 PUSH32 0x6BB7FF708619BA0610CBA295A58592E0451DEE2622938C8755667688DAF3529B DUP3 PUSH1 0x40 MLOAD PUSH2 0x926 SWAP2 SWAP1 PUSH2 0x2476 JUMP JUMPDEST PUSH1 0x40 MLOAD DUP1 SWAP2 SUB SWAP1 LOG2 POP POP JUMP JUMPDEST PUSH0 PUSH1 0x3 PUSH0 SWAP1 SLOAD SWAP1 PUSH2 0x100 EXP SWAP1 DIV PUSH20 0xFFFFFFFFFFFFFFFFFFFFFFFFFFFFFFFFFFFFFFFF AND SWAP1 POP SWAP1 JUMP JUMPDEST PUSH1 0x5 DUP1 SLOAD PUSH2 0x967 SWAP1 PUSH2 0x2F3B JUMP JUMPDEST DUP1 PUSH1 0x1F ADD PUSH1 0x20 DUP1 SWAP2 DIV MUL PUSH1 0x20 ADD PUSH1 0x40 MLOAD SWAP1 DUP2 ADD PUSH1 0x40 MSTORE DUP1 SWAP3 SWAP2 SWAP1 DUP2 DUP2 MSTORE PUSH1 0x20 ADD DUP3 DUP1 SLOAD PUSH2 0x993 SWAP1 PUSH2 0x2F3B JUMP JUMPDEST DUP1 ISZERO PUSH2 0x9DE JUMPI DUP1 PUSH1 0x1F LT PUSH2 0x9B5 JUMPI PUSH2 0x100 DUP1 DUP4 SLOAD DIV MUL DUP4 MSTORE SWAP2 PUSH1 0x20 ADD SWAP2 PUSH2 0x9DE JUMP JUMPDEST DUP3 ADD SWAP2 SWAP1 PUSH0 MSTORE PUSH1 0x20 PUSH0 KECCAK256 SWAP1 JUMPDEST DUP2 SLOAD DUP2 MSTORE SWAP1 PUSH1 0x1 ADD SWAP1 PUSH1 0x20 ADD DUP1 DUP4 GT PUSH2 0x9C1 JUMPI DUP3 SWAP1 SUB PUSH1 0x1F AND DUP3 ADD SWAP2 JUMPDEST POP POP POP POP POP DUP2 JUMP JUMPDEST PUSH2 0x9F8 PUSH2 0x9F1 PUSH2 0xF08 JUMP JUMPDEST DUP4 DUP4 PUSH2 0x17BB JUMP JUMPDEST POP POP JUMP JUMPDEST PUSH2 0xA07 CALLER DUP4 DUP4 PUSH2 0x1922 JUMP JUMPDEST POP POP JUMP JUMPDEST PUSH1 0x6 PUSH1 0x20 MSTORE DUP1 PUSH0 MSTORE PUSH1 0x40 PUSH0 KECCAK256 PUSH0 SWAP2 POP SWAP1 POP DUP1 SLOAD PUSH2 0xA27 SWAP1 PUSH2 0x2F3B JUMP JUMPDEST DUP1 PUSH1 0x1F ADD PUSH1 0x20 DUP1 SWAP2 DIV MUL PUSH1 0x20 ADD PUSH1 0x40 MLOAD SWAP1 DUP2 ADD PUSH1 0x40 MSTORE DUP1 SWAP3 SWAP2 SWAP1 DUP2 DUP2 MSTORE PUSH1 0x20 ADD DUP3 DUP1 SLOAD PUSH2 0xA53 SWAP1 PUSH2 0x2F3B JUMP JUMPDEST DUP1 ISZERO PUSH2 0xA9E JUMPI DUP1 PUSH1 0x1F LT PUSH2 0xA75 JUMPI PUSH2 0x100 DUP1 DUP4 SLOAD DIV MUL DUP4 MSTORE SWAP2 PUSH1 0x20 ADD SWAP2 PUSH2 0xA9E JUMP JUMPDEST DUP3 ADD SWAP2 SWAP1 PUSH0 MSTORE PUSH1 0x20 PUSH0 KECCAK256 SWAP1 JUMPDEST DUP2 SLOAD DUP2 MSTORE SWAP1 PUSH1 0x1 ADD SWAP1 PUSH1 0x20 ADD DUP1 DUP4 GT PUSH2 0xA81 JUMPI DUP3 SWAP1 SUB PUSH1 0x1F AND DUP3 ADD SWAP2 JUMPDEST POP POP POP POP POP DUP2 JUMP JUMPDEST PUSH2 0xAAE PUSH2 0xCE7 JUMP JUMPDEST PUSH2 0xAC8 DUP4 DUP4 DUP4 PUSH1 0x40 MLOAD DUP1 PUSH1 0x20 ADD PUSH1 0x40 MSTORE DUP1 PUSH0 DUP2 MSTORE POP PUSH2 0x14D8 JUMP JUMPDEST POP POP POP JUMP JUMPDEST PUSH0 PUSH1 0x1 PUSH0 DUP5 PUSH20 0xFFFFFFFFFFFFFFFFFFFFFFFFFFFFFFFFFFFFFFFF AND PUSH20 0xFFFFFFFFFFFFFFFFFFFFFFFFFFFFFFFFFFFFFFFF AND DUP2 MSTORE PUSH1 0x20 ADD SWAP1 DUP2 MSTORE PUSH1 0x20 ADD PUSH0 KECCAK256 PUSH0 DUP4 PUSH20 0xFFFFFFFFFFFFFFFFFFFFFFFFFFFFFFFFFFFFFFFF AND PUSH20 0xFFFFFFFFFFFFFFFFFFFFFFFFFFFFFFFFFFFFFFFF AND DUP2 MSTORE PUSH1 0x20 ADD SWAP1 DUP2 MSTORE PUSH1 0x20 ADD PUSH0 KECCAK256 PUSH0 SWAP1 SLOAD SWAP1 PUSH2 0x100 EXP SWAP1 DIV PUSH1 0xFF AND SWAP1 POP SWAP3 SWAP2 POP POP JUMP JUMPDEST PUSH2 0xB63 PUSH2 0xF08 JUMP JUMPDEST PUSH20 0xFFFFFFFFFFFFFFFFFFFFFFFFFFFFFFFFFFFFFFFF AND DUP6 PUSH20 0xFFFFFFFFFFFFFFFFFFFFFFFFFFFFFFFFFFFFFFFF AND EQ DUP1 PUSH2 0xBA9 JUMPI POP PUSH2 0xBA8 DUP6 PUSH2 0xBA3 PUSH2 0xF08 JUMP JUMPDEST PUSH2 0xACD JUMP JUMPDEST JUMPDEST PUSH2 0xBE8 JUMPI PUSH1 0x40 MLOAD PUSH32 0x8C379A000000000000000000000000000000000000000000000000000000000 DUP2 MSTORE PUSH1 0x4 ADD PUSH2 0xBDF SWAP1 PUSH2 0x2FDB JUMP JUMPDEST PUSH1 0x40 MLOAD DUP1 SWAP2 SUB SWAP1 REVERT JUMPDEST PUSH2 0xBF5 DUP6 DUP6 DUP6 DUP6 DUP6 PUSH2 0x1B56 JUMP JUMPDEST POP POP POP POP POP JUMP JUMPDEST PUSH2 0xC04 PUSH2 0xCE7 JUMP JUMPDEST PUSH0 PUSH20 0xFFFFFFFFFFFFFFFFFFFFFFFFFFFFFFFFFFFFFFFF AND DUP2 PUSH20 0xFFFFFFFFFFFFFFFFFFFFFFFFFFFFFFFFFFFFFFFF AND SUB PUSH2 0xC72 JUMPI PUSH1 0x40 MLOAD PUSH32 0x8C379A000000000000000000000000000000000000000000000000000000000 DUP2 MSTORE PUSH1 0x4 ADD PUSH2 0xC69 SWAP1 PUSH2 0x3404 JUMP JUMPDEST PUSH1 0x40 MLOAD DUP1 SWAP2 SUB SWAP1 REVERT JUMPDEST PUSH2 0xC7B DUP2 PUSH2 0x16F8 JUMP JUMPDEST POP JUMP JUMPDEST PUSH0 PUSH32 0x1FFC9A700000000000000000000000000000000000000000000000000000000 PUSH28 0xFFFFFFFFFFFFFFFFFFFFFFFFFFFFFFFFFFFFFFFFFFFFFFFFFFFFFFFF NOT AND DUP3 PUSH28 0xFFFFFFFFFFFFFFFFFFFFFFFFFFFFFFFFFFFFFFFFFFFFFFFFFFFFFFFF NOT AND EQ SWAP1 POP SWAP2 SWAP1 POP JUMP JUMPDEST PUSH2 0xCEF PUSH2 0xF08 JUMP JUMPDEST PUSH20 0xFFFFFFFFFFFFFFFFFFFFFFFFFFFFFFFFFFFFFFFF AND PUSH2 0xD0D PUSH2 0x932 JUMP JUMPDEST PUSH20 0xFFFFFFFFFFFFFFFFFFFFFFFFFFFFFFFFFFFFFFFF AND EQ PUSH2 0xD63 JUMPI PUSH1 0x40 MLOAD PUSH32 0x8C379A000000000000000000000000000000000000000000000000000000000 DUP2 MSTORE PUSH1 0x4 ADD PUSH2 0xD5A SWAP1 PUSH2 0x346C JUMP JUMPDEST PUSH1 0x40 MLOAD DUP1 SWAP2 SUB SWAP1 REVERT JUMPDEST JUMP JUMPDEST PUSH0 PUSH20 0xFFFFFFFFFFFFFFFFFFFFFFFFFFFFFFFFFFFFFFFF AND DUP5 PUSH20 0xFFFFFFFFFFFFFFFFFFFFFFFFFFFFFFFFFFFFFFFF AND SUB PUSH2 0xDD3 JUMPI PUSH1 0x40 MLOAD PUSH32 0x8C379A000000000000000000000000000000000000000000000000000000000 DUP2 MSTORE PUSH1 0x4 ADD PUSH2 0xDCA SWAP1 PUSH2 0x34FA JUMP JUMPDEST PUSH1 0x40 MLOAD DUP1 SWAP2 SUB SWAP1 REVERT JUMPDEST PUSH0 PUSH2 0xDDC PUSH2 0xF08 JUMP JUMPDEST SWAP1 POP PUSH0 PUSH2 0xDE8 DUP6 PUSH2 0x1DDF JUMP JUMPDEST SWAP1 POP PUSH0 PUSH2 0xDF4 DUP6 PUSH2 0x1DDF JUMP JUMPDEST SWAP1 POP PUSH2 0xE04 DUP4 PUSH0 DUP10 DUP6 DUP6 DUP10 PUSH2 0x1E57 JUMP JUMPDEST DUP5 PUSH0 DUP1 DUP9 DUP2 MSTORE PUSH1 0x20 ADD SWAP1 DUP2 MSTORE PUSH1 0x20 ADD PUSH0 KECCAK256 PUSH0 DUP10 PUSH20 0xFFFFFFFFFFFFFFFFFFFFFFFFFFFFFFFFFFFFFFFF AND PUSH20 0xFFFFFFFFFFFFFFFFFFFFFFFFFFFFFFFFFFFFFFFF AND DUP2 MSTORE PUSH1 0x20 ADD SWAP1 DUP2 MSTORE PUSH1 0x20 ADD PUSH0 KECCAK256 PUSH0 DUP3 DUP3 SLOAD PUSH2 0xE5E SWAP2 SWAP1 PUSH2 0x3518 JUMP JUMPDEST SWAP3 POP POP DUP2 SWAP1 SSTORE POP DUP7 PUSH20 0xFFFFFFFFFFFFFFFFFFFFFFFFFFFFFFFFFFFFFFFF AND PUSH0 PUSH20 0xFFFFFFFFFFFFFFFFFFFFFFFFFFFFFFFFFFFFFFFF AND DUP5 PUSH20 0xFFFFFFFFFFFFFFFFFFFFFFFFFFFFFFFFFFFFFFFF AND PUSH32 0xC3D58168C5AE7397731D063D5BBF3D657854427343F4C083240F7AACAA2D0F62 DUP10 DUP10 PUSH1 0x40 MLOAD PUSH2 0xEDB SWAP3 SWAP2 SWAP1 PUSH2 0x354B JUMP JUMPDEST PUSH1 0x40 MLOAD DUP1 SWAP2 SUB SWAP1 LOG4 PUSH2 0xEF1 DUP4 PUSH0 DUP10 DUP6 DUP6 DUP10 PUSH2 0x1E5F JUMP JUMPDEST PUSH2 0xEFF DUP4 PUSH0 DUP10 DUP10 DUP10 DUP10 PUSH2 0x1E67 JUMP JUMPDEST POP POP POP POP POP POP POP JUMP JUMPDEST PUSH0 CALLER SWAP1 POP SWAP1 JUMP JUMPDEST DUP2 MLOAD DUP4 MLOAD EQ PUSH2 0xF53 JUMPI PUSH1 0x40 MLOAD PUSH32 0x8C379A000000000000000000000000000000000000000000000000000000000 DUP2 MSTORE PUSH1 0x4 ADD PUSH2 0xF4A SWAP1 PUSH2 0x35E2 JUMP JUMPDEST PUSH1 0x40 MLOAD DUP1 SWAP2 SUB SWAP1 REVERT JUMPDEST PUSH0 PUSH20 0xFFFFFFFFFFFFFFFFFFFFFFFFFFFFFFFFFFFFFFFF AND DUP5 PUSH20 0xFFFFFFFFFFFFFFFFFFFFFFFFFFFFFFFFFFFFFFFF AND SUB PUSH2 0xFC1 JUMPI PUSH1 0x40 MLOAD PUSH32 0x8C379A000000000000000000000000000000000000000000000000000000000 DUP2 MSTORE PUSH1 0x4 ADD PUSH2 0xFB8 SWAP1 PUSH2 0x3670 JUMP JUMPDEST PUSH1 0x40 MLOAD DUP1 SWAP2 SUB SWAP1 REVERT JUMPDEST PUSH0 PUSH2 0xFCA PUSH2 0xF08 JUMP JUMPDEST SWAP1 POP PUSH2 0xFDA DUP2 DUP8 DUP8 DUP8 DUP8 DUP8 PUSH2 0x1E57 JUMP JUMPDEST PUSH0 JUMPDEST DUP5 MLOAD DUP2 LT ISZERO PUSH2 0x117A JUMPI PUSH0 DUP6 DUP3 DUP2 MLOAD DUP2 LT PUSH2 0xFF9 JUMPI PUSH2 0xFF8 PUSH2 0x3087 JUMP JUMPDEST JUMPDEST PUSH1 0x20 MUL PUSH1 0x20 ADD ADD MLOAD SWAP1 POP PUSH0 DUP6 DUP4 DUP2 MLOAD DUP2 LT PUSH2 0x1017 JUMPI PUSH2 0x1016 PUSH2 0x3087 JUMP JUMPDEST JUMPDEST PUSH1 0x20 MUL PUSH1 0x20 ADD ADD MLOAD SWAP1 POP PUSH0 DUP1 PUSH0 DUP5 DUP2 MSTORE PUSH1 0x20 ADD SWAP1 DUP2 MSTORE PUSH1 0x20 ADD PUSH0 KECCAK256 PUSH0 DUP12 PUSH20 0xFFFFFFFFFFFFFFFFFFFFFFFFFFFFFFFFFFFFFFFF AND PUSH20 0xFFFFFFFFFFFFFFFFFFFFFFFFFFFFFFFFFFFFFFFF AND DUP2 MSTORE PUSH1 0x20 ADD SWAP1 DUP2 MSTORE PUSH1 0x20 ADD PUSH0 KECCAK256 SLOAD SWAP1 POP DUP2 DUP2 LT ISZERO PUSH2 0x10B3 JUMPI PUSH1 0x40 MLOAD PUSH32 0x8C379A000000000000000000000000000000000000000000000000000000000 DUP2 MSTORE PUSH1 0x4 ADD PUSH2 0x10AA SWAP1 PUSH2 0x36FE JUMP JUMPDEST PUSH1 0x40 MLOAD DUP1 SWAP2 SUB SWAP1 REVERT JUMPDEST DUP2 DUP2 SUB PUSH0 DUP1 DUP6 DUP2 MSTORE PUSH1 0x20 ADD SWAP1 DUP2 MSTORE PUSH1 0x20 ADD PUSH0 KECCAK256 PUSH0 DUP13 PUSH20 0xFFFFFFFFFFFFFFFFFFFFFFFFFFFFFFFFFFFFFFFF AND PUSH20 0xFFFFFFFFFFFFFFFFFFFFFFFFFFFFFFFFFFFFFFFF AND DUP2 MSTORE PUSH1 0x20 ADD SWAP1 DUP2 MSTORE PUSH1 0x20 ADD PUSH0 KECCAK256 DUP2 SWAP1 SSTORE POP DUP2 PUSH0 DUP1 DUP6 DUP2 MSTORE PUSH1 0x20 ADD SWAP1 DUP2 MSTORE PUSH1 0x20 ADD PUSH0 KECCAK256 PUSH0 DUP12 PUSH20 0xFFFFFFFFFFFFFFFFFFFFFFFFFFFFFFFFFFFFFFFF AND PUSH20 0xFFFFFFFFFFFFFFFFFFFFFFFFFFFFFFFFFFFFFFFF AND DUP2 MSTORE PUSH1 0x20 ADD SWAP1 DUP2 MSTORE PUSH1 0x20 ADD PUSH0 KECCAK256 PUSH0 DUP3 DUP3 SLOAD PUSH2 0x115F SWAP2 SWAP1 PUSH2 0x3518 JUMP JUMPDEST SWAP3 POP POP DUP2 SWAP1 SSTORE POP POP POP POP DUP1 PUSH2 0x1173 SWAP1 PUSH2 0x30E1 JUMP JUMPDEST SWAP1 POP PUSH2 0xFDC JUMP JUMPDEST POP DUP5 PUSH20 0xFFFFFFFFFFFFFFFFFFFFFFFFFFFFFFFFFFFFFFFF AND DUP7 PUSH20 0xFFFFFFFFFFFFFFFFFFFFFFFFFFFFFFFFFFFFFFFF AND DUP3 PUSH20 0xFFFFFFFFFFFFFFFFFFFFFFFFFFFFFFFFFFFFFFFF AND PUSH32 0x4A39DC06D4C0DBC64B70AF90FD698A233A518AA5D07E595D983B8C0526C8F7FB DUP8 DUP8 PUSH1 0x40 MLOAD PUSH2 0x11F1 SWAP3 SWAP2 SWAP1 PUSH2 0x371C JUMP JUMPDEST PUSH1 0x40 MLOAD DUP1 SWAP2 SUB SWAP1 LOG4 PUSH2 0x1207 DUP2 DUP8 DUP8 DUP8 DUP8 DUP8 PUSH2 0x1E5F JUMP JUMPDEST PUSH2 0x1215 DUP2 DUP8 DUP8 DUP8 DUP8 DUP8 PUSH2 0x203D JUMP JUMPDEST POP POP POP POP POP POP JUMP JUMPDEST PUSH0 PUSH20 0xFFFFFFFFFFFFFFFFFFFFFFFFFFFFFFFFFFFFFFFF AND DUP4 PUSH20 0xFFFFFFFFFFFFFFFFFFFFFFFFFFFFFFFFFFFFFFFF AND SUB PUSH2 0x128B JUMPI PUSH1 0x40 MLOAD PUSH32 0x8C379A000000000000000000000000000000000000000000000000000000000 DUP2 MSTORE PUSH1 0x4 ADD PUSH2 0x1282 SWAP1 PUSH2 0x37C1 JUMP JUMPDEST PUSH1 0x40 MLOAD DUP1 SWAP2 SUB SWAP1 REVERT JUMPDEST DUP1 MLOAD DUP3 MLOAD EQ PUSH2 0x12CF JUMPI PUSH1 0x40 MLOAD PUSH32 0x8C379A000000000000000000000000000000000000000000000000000000000 DUP2 MSTORE PUSH1 0x4 ADD PUSH2 0x12C6 SWAP1 PUSH2 0x35E2 JUMP JUMPDEST PUSH1 0x40 MLOAD DUP1 SWAP2 SUB SWAP1 REVERT JUMPDEST PUSH0 PUSH2 0x12D8 PUSH2 0xF08 JUMP JUMPDEST SWAP1 POP PUSH2 0x12F6 DUP2 DUP6 PUSH0 DUP7 DUP7 PUSH1 0x40 MLOAD DUP1 PUSH1 0x20 ADD PUSH1 0x40 MSTORE DUP1 PUSH0 DUP2 MSTORE POP PUSH2 0x1E57 JUMP JUMPDEST PUSH0 JUMPDEST DUP4 MLOAD DUP2 LT ISZERO PUSH2 0x1437 JUMPI PUSH0 DUP5 DUP3 DUP2 MLOAD DUP2 LT PUSH2 0x1315 JUMPI PUSH2 0x1314 PUSH2 0x3087 JUMP JUMPDEST JUMPDEST PUSH1 0x20 MUL PUSH1 0x20 ADD ADD MLOAD SWAP1 POP PUSH0 DUP5 DUP4 DUP2 MLOAD DUP2 LT PUSH2 0x1333 JUMPI PUSH2 0x1332 PUSH2 0x3087 JUMP JUMPDEST JUMPDEST PUSH1 0x20 MUL PUSH1 0x20 ADD ADD MLOAD SWAP1 POP PUSH0 DUP1 PUSH0 DUP5 DUP2 MSTORE PUSH1 0x20 ADD SWAP1 DUP2 MSTORE PUSH1 0x20 ADD PUSH0 KECCAK256 PUSH0 DUP10 PUSH20 0xFFFFFFFFFFFFFFFFFFFFFFFFFFFFFFFFFFFFFFFF AND PUSH20 0xFFFFFFFFFFFFFFFFFFFFFFFFFFFFFFFFFFFFFFFF AND DUP2 MSTORE PUSH1 0x20 ADD SWAP1 DUP2 MSTORE PUSH1 0x20 ADD PUSH0 KECCAK256 SLOAD SWAP1 POP DUP2 DUP2 LT ISZERO PUSH2 0x13CF JUMPI PUSH1 0x40 MLOAD PUSH32 0x8C379A000000000000000000000000000000000000000000000000000000000 DUP2 MSTORE PUSH1 0x4 ADD PUSH2 0x13C6 SWAP1 PUSH2 0x384F JUMP JUMPDEST PUSH1 0x40 MLOAD DUP1 SWAP2 SUB SWAP1 REVERT JUMPDEST DUP2 DUP2 SUB PUSH0 DUP1 DUP6 DUP2 MSTORE PUSH1 0x20 ADD SWAP1 DUP2 MSTORE PUSH1 0x20 ADD PUSH0 KECCAK256 PUSH0 DUP11 PUSH20 0xFFFFFFFFFFFFFFFFFFFFFFFFFFFFFFFFFFFFFFFF AND PUSH20 0xFFFFFFFFFFFFFFFFFFFFFFFFFFFFFFFFFFFFFFFF AND DUP2 MSTORE PUSH1 0x20 ADD SWAP1 DUP2 MSTORE PUSH1 0x20 ADD PUSH0 KECCAK256 DUP2 SWAP1 SSTORE POP POP POP POP DUP1 DUP1 PUSH2 0x142F SWAP1 PUSH2 0x30E1 JUMP JUMPDEST SWAP2 POP POP PUSH2 0x12F8 JUMP JUMPDEST POP PUSH0 PUSH20 0xFFFFFFFFFFFFFFFFFFFFFFFFFFFFFFFFFFFFFFFF AND DUP5 PUSH20 0xFFFFFFFFFFFFFFFFFFFFFFFFFFFFFFFFFFFFFFFF AND DUP3 PUSH20 0xFFFFFFFFFFFFFFFFFFFFFFFFFFFFFFFFFFFFFFFF AND PUSH32 0x4A39DC06D4C0DBC64B70AF90FD698A233A518AA5D07E595D983B8C0526C8F7FB DUP7 DUP7 PUSH1 0x40 MLOAD PUSH2 0x14AE SWAP3 SWAP2 SWAP1 PUSH2 0x371C JUMP JUMPDEST PUSH1 0x40 MLOAD DUP1 SWAP2 SUB SWAP1 LOG4 PUSH2 0x14D2 DUP2 DUP6 PUSH0 DUP7 DUP7 PUSH1 0x40 MLOAD DUP1 PUSH1 0x20 ADD PUSH1 0x40 MSTORE DUP1 PUSH0 DUP2 MSTORE POP PUSH2 0x1E5F JUMP JUMPDEST POP POP POP POP JUMP JUMPDEST PUSH0 PUSH20 0xFFFFFFFFFFFFFFFFFFFFFFFFFFFFFFFFFFFFFFFF AND DUP5 PUSH20 0xFFFFFFFFFFFFFFFFFFFFFFFFFFFFFFFFFFFFFFFF AND SUB PUSH2 0x1546 JUMPI PUSH1 0x40 MLOAD PUSH32 0x8C379A000000000000000000000000000000000000000000000000000000000 DUP2 MSTORE PUSH1 0x4 ADD PUSH2 0x153D SWAP1 PUSH2 0x34FA JUMP JUMPDEST PUSH1 0x40 MLOAD DUP1 SWAP2 SUB SWAP1 REVERT JUMPDEST DUP2 MLOAD DUP4 MLOAD EQ PUSH2 0x158A JUMPI PUSH1 0x40 MLOAD PUSH32 0x8C379A000000000000000000000000000000000000000000000000000000000 DUP2 MSTORE PUSH1 0x4 ADD PUSH2 0x1581 SWAP1 PUSH2 0x35E2 JUMP JUMPDEST PUSH1 0x40 MLOAD DUP1 SWAP2 SUB SWAP1 REVERT JUMPDEST PUSH0 PUSH2 0x1593 PUSH2 0xF08 JUMP JUMPDEST SWAP1 POP PUSH2 0x15A3 DUP2 PUSH0 DUP8 DUP8 DUP8 DUP8 PUSH2 0x1E57 JUMP JUMPDEST PUSH0 JUMPDEST DUP5 MLOAD DUP2 LT ISZERO PUSH2 0x1656 JUMPI DUP4 DUP2 DUP2 MLOAD DUP2 LT PUSH2 0x15C1 JUMPI PUSH2 0x15C0 PUSH2 0x3087 JUMP JUMPDEST JUMPDEST PUSH1 0x20 MUL PUSH1 0x20 ADD ADD MLOAD PUSH0 DUP1 DUP8 DUP5 DUP2 MLOAD DUP2 LT PUSH2 0x15DE JUMPI PUSH2 0x15DD PUSH2 0x3087 JUMP JUMPDEST JUMPDEST PUSH1 0x20 MUL PUSH1 0x20 ADD ADD MLOAD DUP2 MSTORE PUSH1 0x20 ADD SWAP1 DUP2 MSTORE PUSH1 0x20 ADD PUSH0 KECCAK256 PUSH0 DUP9 PUSH20 0xFFFFFFFFFFFFFFFFFFFFFFFFFFFFFFFFFFFFFFFF AND PUSH20 0xFFFFFFFFFFFFFFFFFFFFFFFFFFFFFFFFFFFFFFFF AND DUP2 MSTORE PUSH1 0x20 ADD SWAP1 DUP2 MSTORE PUSH1 0x20 ADD PUSH0 KECCAK256 PUSH0 DUP3 DUP3 SLOAD PUSH2 0x163C SWAP2 SWAP1 PUSH2 0x3518 JUMP JUMPDEST SWAP3 POP POP DUP2 SWAP1 SSTORE POP DUP1 DUP1 PUSH2 0x164E SWAP1 PUSH2 0x30E1 JUMP JUMPDEST SWAP2 POP POP PUSH2 0x15A5 JUMP JUMPDEST POP DUP5 PUSH20 0xFFFFFFFFFFFFFFFFFFFFFFFFFFFFFFFFFFFFFFFF AND PUSH0 PUSH20 0xFFFFFFFFFFFFFFFFFFFFFFFFFFFFFFFFFFFFFFFF AND DUP3 PUSH20 0xFFFFFFFFFFFFFFFFFFFFFFFFFFFFFFFFFFFFFFFF AND PUSH32 0x4A39DC06D4C0DBC64B70AF90FD698A233A518AA5D07E595D983B8C0526C8F7FB DUP8 DUP8 PUSH1 0x40 MLOAD PUSH2 0x16CD SWAP3 SWAP2 SWAP1 PUSH2 0x371C JUMP JUMPDEST PUSH1 0x40 MLOAD DUP1 SWAP2 SUB SWAP1 LOG4 PUSH2 0x16E3 DUP2 PUSH0 DUP8 DUP8 DUP8 DUP8 PUSH2 0x1E5F JUMP JUMPDEST PUSH2 0x16F1 DUP2 PUSH0 DUP8 DUP8 DUP8 DUP8 PUSH2 0x203D JUMP JUMPDEST POP POP POP POP POP JUMP JUMPDEST PUSH0 PUSH1 0x3 PUSH0 SWAP1 SLOAD SWAP1 PUSH2 0x100 EXP SWAP1 DIV PUSH20 0xFFFFFFFFFFFFFFFFFFFFFFFFFFFFFFFFFFFFFFFF AND SWAP1 POP DUP2 PUSH1 0x3 PUSH0 PUSH2 0x100 EXP DUP2 SLOAD DUP2 PUSH20 0xFFFFFFFFFFFFFFFFFFFFFFFFFFFFFFFFFFFFFFFF MUL NOT AND SWAP1 DUP4 PUSH20 0xFFFFFFFFFFFFFFFFFFFFFFFFFFFFFFFFFFFFFFFF AND MUL OR SWAP1 SSTORE POP DUP2 PUSH20 0xFFFFFFFFFFFFFFFFFFFFFFFFFFFFFFFFFFFFFFFF AND DUP2 PUSH20 0xFFFFFFFFFFFFFFFFFFFFFFFFFFFFFFFFFFFFFFFF AND PUSH32 0x8BE0079C531659141344CD1FD0A4F28419497F9722A3DAAFE3B4186F6B6457E0 PUSH1 0x40 MLOAD PUSH1 0x40 MLOAD DUP1 SWAP2 SUB SWAP1 LOG3 POP POP JUMP JUMPDEST DUP2 PUSH20 0xFFFFFFFFFFFFFFFFFFFFFFFFFFFFFFFFFFFFFFFF AND DUP4 PUSH20 0xFFFFFFFFFFFFFFFFFFFFFFFFFFFFFFFFFFFFFFFF AND SUB PUSH2 0x1829 JUMPI PUSH1 0x40 MLOAD PUSH32 0x8C379A000000000000000000000000000000000000000000000000000000000 DUP2 MSTORE PUSH1 0x4 ADD PUSH2 0x1820 SWAP1 PUSH2 0x38DD JUMP JUMPDEST PUSH1 0x40 MLOAD DUP1 SWAP2 SUB SWAP1 REVERT JUMPDEST DUP1 PUSH1 0x1 PUSH0 DUP6 PUSH20 0xFFFFFFFFFFFFFFFFFFFFFFFFFFFFFFFFFFFFFFFF AND PUSH20 0xFFFFFFFFFFFFFFFFFFFFFFFFFFFFFFFFFFFFFFFF AND DUP2 MSTORE PUSH1 0x20 ADD SWAP1 DUP2 MSTORE PUSH1 0x20 ADD PUSH0 KECCAK256 PUSH0 DUP5 PUSH20 0xFFFFFFFFFFFFFFFFFFFFFFFFFFFFFFFFFFFFFFFF AND PUSH20 0xFFFFFFFFFFFFFFFFFFFFFFFFFFFFFFFFFFFFFFFF AND DUP2 MSTORE PUSH1 0x20 ADD SWAP1 DUP2 MSTORE PUSH1 0x20 ADD PUSH0 KECCAK256 PUSH0 PUSH2 0x100 EXP DUP2 SLOAD DUP2 PUSH1 0xFF MUL NOT AND SWAP1 DUP4 ISZERO ISZERO MUL OR SWAP1 SSTORE POP DUP2 PUSH20 0xFFFFFFFFFFFFFFFFFFFFFFFFFFFFFFFFFFFFFFFF AND DUP4 PUSH20 0xFFFFFFFFFFFFFFFFFFFFFFFFFFFFFFFFFFFFFFFF AND PUSH32 0x17307EAB39AB6107E8899845AD3D59BD9653F200F220920489CA2B5937696C31 DUP4 PUSH1 0x40 MLOAD PUSH2 0x1915 SWAP2 SWAP1 PUSH2 0x23D3 JUMP JUMPDEST PUSH1 0x40 MLOAD DUP1 SWAP2 SUB SWAP1 LOG3 POP POP POP JUMP JUMPDEST PUSH0 PUSH20 0xFFFFFFFFFFFFFFFFFFFFFFFFFFFFFFFFFFFFFFFF AND DUP4 PUSH20 0xFFFFFFFFFFFFFFFFFFFFFFFFFFFFFFFFFFFFFFFF AND SUB PUSH2 0x1990 JUMPI PUSH1 0x40 MLOAD PUSH32 0x8C379A000000000000000000000000000000000000000000000000000000000 DUP2 MSTORE PUSH1 0x4 ADD PUSH2 0x1987 SWAP1 PUSH2 0x37C1 JUMP JUMPDEST PUSH1 0x40 MLOAD DUP1 SWAP2 SUB SWAP1 REVERT JUMPDEST PUSH0 PUSH2 0x1999 PUSH2 0xF08 JUMP JUMPDEST SWAP1 POP PUSH0 PUSH2 0x19A5 DUP5 PUSH2 0x1DDF JUMP JUMPDEST SWAP1 POP PUSH0 PUSH2 0x19B1 DUP5 PUSH2 0x1DDF JUMP JUMPDEST SWAP1 POP PUSH2 0x19CF DUP4 DUP8 PUSH0 DUP6 DUP6 PUSH1 0x40 MLOAD DUP1 PUSH1 0x20 ADD PUSH1 0x40 MSTORE DUP1 PUSH0 DUP2 MSTORE POP PUSH2 0x1E57 JUMP JUMPDEST PUSH0 DUP1 PUSH0 DUP8 DUP2 MSTORE PUSH1 0x20 ADD SWAP1 DUP2 MSTORE PUSH1 0x20 ADD PUSH0 KECCAK256 PUSH0 DUP9 PUSH20 0xFFFFFFFFFFFFFFFFFFFFFFFFFFFFFFFFFFFFFFFF AND PUSH20 0xFFFFFFFFFFFFFFFFFFFFFFFFFFFFFFFFFFFFFFFF AND DUP2 MSTORE PUSH1 0x20 ADD SWAP1 DUP2 MSTORE PUSH1 0x20 ADD PUSH0 KECCAK256 SLOAD SWAP1 POP DUP5 DUP2 LT ISZERO PUSH2 0x1A61 JUMPI PUSH1 0x40 MLOAD PUSH32 0x8C379A000000000000000000000000000000000000000000000000000000000 DUP2 MSTORE PUSH1 0x4 ADD PUSH2 0x1A58 SWAP1 PUSH2 0x384F JUMP JUMPDEST PUSH1 0x40 MLOAD DUP1 SWAP2 SUB SWAP1 REVERT JUMPDEST DUP5 DUP2 SUB PUSH0 DUP1 DUP9 DUP2 MSTORE PUSH1 0x20 ADD SWAP1 DUP2 MSTORE PUSH1 0x20 ADD PUSH0 KECCAK256 PUSH0 DUP10 PUSH20 0xFFFFFFFFFFFFFFFFFFFFFFFFFFFFFFFFFFFFFFFF AND PUSH20 0xFFFFFFFFFFFFFFFFFFFFFFFFFFFFFFFFFFFFFFFF AND DUP2 MSTORE PUSH1 0x20 ADD SWAP1 DUP2 MSTORE PUSH1 0x20 ADD PUSH0 KECCAK256 DUP2 SWAP1 SSTORE POP PUSH0 PUSH20 0xFFFFFFFFFFFFFFFFFFFFFFFFFFFFFFFFFFFFFFFF AND DUP8 PUSH20 0xFFFFFFFFFFFFFFFFFFFFFFFFFFFFFFFFFFFFFFFF AND DUP6 PUSH20 0xFFFFFFFFFFFFFFFFFFFFFFFFFFFFFFFFFFFFFFFF AND PUSH32 0xC3D58168C5AE7397731D063D5BBF3D657854427343F4C083240F7AACAA2D0F62 DUP10 DUP10 PUSH1 0x40 MLOAD PUSH2 0x1B29 SWAP3 SWAP2 SWAP1 PUSH2 0x354B JUMP JUMPDEST PUSH1 0x40 MLOAD DUP1 SWAP2 SUB SWAP1 LOG4 PUSH2 0x1B4D DUP5 DUP9 PUSH0 DUP7 DUP7 PUSH1 0x40 MLOAD DUP1 PUSH1 0x20 ADD PUSH1 0x40 MSTORE DUP1 PUSH0 DUP2 MSTORE POP PUSH2 0x1E5F JUMP JUMPDEST POP POP POP POP POP POP POP JUMP JUMPDEST PUSH0 PUSH20 0xFFFFFFFFFFFFFFFFFFFFFFFFFFFFFFFFFFFFFFFF AND DUP5 PUSH20 0xFFFFFFFFFFFFFFFFFFFFFFFFFFFFFFFFFFFFFFFF AND SUB PUSH2 0x1BC4 JUMPI PUSH1 0x40 MLOAD PUSH32 0x8C379A000000000000000000000000000000000000000000000000000000000 DUP2 MSTORE PUSH1 0x4 ADD PUSH2 0x1BBB SWAP1 PUSH2 0x3670 JUMP JUMPDEST PUSH1 0x40 MLOAD DUP1 SWAP2 SUB SWAP1 REVERT JUMPDEST PUSH0 PUSH2 0x1BCD PUSH2 0xF08 JUMP JUMPDEST SWAP1 POP PUSH0 PUSH2 0x1BD9 DUP6 PUSH2 0x1DDF JUMP JUMPDEST SWAP1 POP PUSH0 PUSH2 0x1BE5 DUP6 PUSH2 0x1DDF JUMP JUMPDEST SWAP1 POP PUSH2 0x1BF5 DUP4 DUP10 DUP10 DUP6 DUP6 DUP10 PUSH2 0x1E57 JUMP JUMPDEST PUSH0 DUP1 PUSH0 DUP9 DUP2 MSTORE PUSH1 0x20 ADD SWAP1 DUP2 MSTORE PUSH1 0x20 ADD PUSH0 KECCAK256 PUSH0 DUP11 PUSH20 0xFFFFFFFFFFFFFFFFFFFFFFFFFFFFFFFFFFFFFFFF AND PUSH20 0xFFFFFFFFFFFFFFFFFFFFFFFFFFFFFFFFFFFFFFFF AND DUP2 MSTORE PUSH1 0x20 ADD SWAP1 DUP2 MSTORE PUSH1 0x20 ADD PUSH0 KECCAK256 SLOAD SWAP1 POP DUP6 DUP2 LT ISZERO PUSH2 0x1C87 JUMPI PUSH1 0x40 MLOAD PUSH32 0x8C379A000000000000000000000000000000000000000000000000000000000 DUP2 MSTORE PUSH1 0x4 ADD PUSH2 0x1C7E SWAP1 PUSH2 0x36FE JUMP JUMPDEST PUSH1 0x40 MLOAD DUP1 SWAP2 SUB SWAP1 REVERT JUMPDEST DUP6 DUP2 SUB PUSH0 DUP1 DUP10 DUP2 MSTORE PUSH1 0x20 ADD SWAP1 DUP2 MSTORE PUSH1 0x20 ADD PUSH0 KECCAK256 PUSH0 DUP12 PUSH20 0xFFFFFFFFFFFFFFFFFFFFFFFFFFFFFFFFFFFFFFFF AND PUSH20 0xFFFFFFFFFFFFFFFFFFFFFFFFFFFFFFFFFFFFFFFF AND DUP2 MSTORE PUSH1 0x20 ADD SWAP1 DUP2 MSTORE PUSH1 0x20 ADD PUSH0 KECCAK256 DUP2 SWAP1 SSTORE POP DUP6 PUSH0 DUP1 DUP10 DUP2 MSTORE PUSH1 0x20 ADD SWAP1 DUP2 MSTORE PUSH1 0x20 ADD PUSH0 KECCAK256 PUSH0 DUP11 PUSH20 0xFFFFFFFFFFFFFFFFFFFFFFFFFFFFFFFFFFFFFFFF AND PUSH20 0xFFFFFFFFFFFFFFFFFFFFFFFFFFFFFFFFFFFFFFFF AND DUP2 MSTORE PUSH1 0x20 ADD SWAP1 DUP2 MSTORE PUSH1 0x20 ADD PUSH0 KECCAK256 PUSH0 DUP3 DUP3 SLOAD PUSH2 0x1D33 SWAP2 SWAP1 PUSH2 0x3518 JUMP JUMPDEST SWAP3 POP POP DUP2 SWAP1 SSTORE POP DUP8 PUSH20 0xFFFFFFFFFFFFFFFFFFFFFFFFFFFFFFFFFFFFFFFF AND DUP10 PUSH20 0xFFFFFFFFFFFFFFFFFFFFFFFFFFFFFFFFFFFFFFFF AND DUP6 PUSH20 0xFFFFFFFFFFFFFFFFFFFFFFFFFFFFFFFFFFFFFFFF AND PUSH32 0xC3D58168C5AE7397731D063D5BBF3D657854427343F4C083240F7AACAA2D0F62 DUP11 DUP11 PUSH1 0x40 MLOAD PUSH2 0x1DB0 SWAP3 SWAP2 SWAP1 PUSH2 0x354B JUMP JUMPDEST PUSH1 0x40 MLOAD DUP1 SWAP2 SUB SWAP1 LOG4 PUSH2 0x1DC6 DUP5 DUP11 DUP11 DUP7 DUP7 DUP11 PUSH2 0x1E5F JUMP JUMPDEST PUSH2 0x1DD4 DUP5 DUP11 DUP11 DUP11 DUP11 DUP11 PUSH2 0x1E67 JUMP JUMPDEST POP POP POP POP POP POP POP POP POP JUMP JUMPDEST PUSH1 0x60 PUSH0 PUSH1 0x1 PUSH8 0xFFFFFFFFFFFFFFFF DUP2 GT ISZERO PUSH2 0x1DFD JUMPI PUSH2 0x1DFC PUSH2 0x2515 JUMP JUMPDEST JUMPDEST PUSH1 0x40 MLOAD SWAP1 DUP1 DUP3 MSTORE DUP1 PUSH1 0x20 MUL PUSH1 0x20 ADD DUP3 ADD PUSH1 0x40 MSTORE DUP1 ISZERO PUSH2 0x1E2B JUMPI DUP2 PUSH1 0x20 ADD PUSH1 0x20 DUP3 MUL DUP1 CALLDATASIZE DUP4 CALLDATACOPY DUP1 DUP3 ADD SWAP2 POP POP SWAP1 POP JUMPDEST POP SWAP1 POP DUP3 DUP2 PUSH0 DUP2 MLOAD DUP2 LT PUSH2 0x1E42 JUMPI PUSH2 0x1E41 PUSH2 0x3087 JUMP JUMPDEST JUMPDEST PUSH1 0x20 MUL PUSH1 0x20 ADD ADD DUP2 DUP2 MSTORE POP POP DUP1 SWAP2 POP POP SWAP2 SWAP1 POP JUMP JUMPDEST POP POP POP POP POP POP JUMP JUMPDEST POP POP POP POP POP POP JUMP JUMPDEST PUSH2 0x1E86 DUP5 PUSH20 0xFFFFFFFFFFFFFFFFFFFFFFFFFFFFFFFFFFFFFFFF AND PUSH2 0x2213 JUMP JUMPDEST ISZERO PUSH2 0x2035 JUMPI DUP4 PUSH20 0xFFFFFFFFFFFFFFFFFFFFFFFFFFFFFFFFFFFFFFFF AND PUSH4 0xF23A6E61 DUP8 DUP8 DUP7 DUP7 DUP7 PUSH1 0x40 MLOAD DUP7 PUSH4 0xFFFFFFFF AND PUSH1 0xE0 SHL DUP2 MSTORE PUSH1 0x4 ADD PUSH2 0x1ECC SWAP6 SWAP5 SWAP4 SWAP3 SWAP2 SWAP1 PUSH2 0x394D JUMP JUMPDEST PUSH1 0x20 PUSH1 0x40 MLOAD DUP1 DUP4 SUB DUP2 PUSH0 DUP8 GAS CALL SWAP3 POP POP POP DUP1 ISZERO PUSH2 0x1F07 JUMPI POP PUSH1 0x40 MLOAD RETURNDATASIZE PUSH1 0x1F NOT PUSH1 0x1F DUP3 ADD AND DUP3 ADD DUP1 PUSH1 0x40 MSTORE POP DUP2 ADD SWAP1 PUSH2 0x1F04 SWAP2 SWAP1 PUSH2 0x39B9 JUMP JUMPDEST PUSH1 0x1 JUMPDEST PUSH2 0x1FAC JUMPI PUSH2 0x1F13 PUSH2 0x39F0 JUMP JUMPDEST DUP1 PUSH4 0x8C379A0 SUB PUSH2 0x1F6F JUMPI POP PUSH2 0x1F27 PUSH2 0x3A0F JUMP JUMPDEST DUP1 PUSH2 0x1F32 JUMPI POP PUSH2 0x1F71 JUMP JUMPDEST DUP1 PUSH1 0x40 MLOAD PUSH32 0x8C379A000000000000000000000000000000000000000000000000000000000 DUP2 MSTORE PUSH1 0x4 ADD PUSH2 0x1F66 SWAP2 SWAP1 PUSH2 0x2476 JUMP JUMPDEST PUSH1 0x40 MLOAD DUP1 SWAP2 SUB SWAP1 REVERT JUMPDEST POP JUMPDEST PUSH1 0x40 MLOAD PUSH32 0x8C379A000000000000000000000000000000000000000000000000000000000 DUP2 MSTORE PUSH1 0x4 ADD PUSH2 0x1FA3 SWAP1 PUSH2 0x3B0E JUMP JUMPDEST PUSH1 0x40 MLOAD DUP1 SWAP2 SUB SWAP1 REVERT JUMPDEST PUSH4 0xF23A6E61 PUSH1 0xE0 SHL PUSH28 0xFFFFFFFFFFFFFFFFFFFFFFFFFFFFFFFFFFFFFFFFFFFFFFFFFFFFFFFF NOT AND DUP2 PUSH28 0xFFFFFFFFFFFFFFFFFFFFFFFFFFFFFFFFFFFFFFFFFFFFFFFFFFFFFFFF NOT AND EQ PUSH2 0x2033 JUMPI PUSH1 0x40 MLOAD PUSH32 0x8C379A000000000000000000000000000000000000000000000000000000000 DUP2 MSTORE PUSH1 0x4 ADD PUSH2 0x202A SWAP1 PUSH2 0x3B9C JUMP JUMPDEST PUSH1 0x40 MLOAD DUP1 SWAP2 SUB SWAP1 REVERT JUMPDEST POP JUMPDEST POP POP POP POP POP POP JUMP JUMPDEST PUSH2 0x205C DUP5 PUSH20 0xFFFFFFFFFFFFFFFFFFFFFFFFFFFFFFFFFFFFFFFF AND PUSH2 0x2213 JUMP JUMPDEST ISZERO PUSH2 0x220B JUMPI DUP4 PUSH20 0xFFFFFFFFFFFFFFFFFFFFFFFFFFFFFFFFFFFFFFFF AND PUSH4 0xBC197C81 DUP8 DUP8 DUP7 DUP7 DUP7 PUSH1 0x40 MLOAD DUP7 PUSH4 0xFFFFFFFF AND PUSH1 0xE0 SHL DUP2 MSTORE PUSH1 0x4 ADD PUSH2 0x20A2 SWAP6 SWAP5 SWAP4 SWAP3 SWAP2 SWAP1 PUSH2 0x3BBA JUMP JUMPDEST PUSH1 0x20 PUSH1 0x40 MLOAD DUP1 DUP4 SUB DUP2 PUSH0 DUP8 GAS CALL SWAP3 POP POP POP DUP1 ISZERO PUSH2 0x20DD JUMPI POP PUSH1 0x40 MLOAD RETURNDATASIZE PUSH1 0x1F NOT PUSH1 0x1F DUP3 ADD AND DUP3 ADD DUP1 PUSH1 0x40 MSTORE POP DUP2 ADD SWAP1 PUSH2 0x20DA SWAP2 SWAP1 PUSH2 0x39B9 JUMP JUMPDEST PUSH1 0x1 JUMPDEST PUSH2 0x2182 JUMPI PUSH2 0x20E9 PUSH2 0x39F0 JUMP JUMPDEST DUP1 PUSH4 0x8C379A0 SUB PUSH2 0x2145 JUMPI POP PUSH2 0x20FD PUSH2 0x3A0F JUMP JUMPDEST DUP1 PUSH2 0x2108 JUMPI POP PUSH2 0x2147 JUMP JUMPDEST DUP1 PUSH1 0x40 MLOAD PUSH32 0x8C379A000000000000000000000000000000000000000000000000000000000 DUP2 MSTORE PUSH1 0x4 ADD PUSH2 0x213C SWAP2 SWAP1 PUSH2 0x2476 JUMP JUMPDEST PUSH1 0x40 MLOAD DUP1 SWAP2 SUB SWAP1 REVERT JUMPDEST POP JUMPDEST PUSH1 0x40 MLOAD PUSH32 0x8C379A000000000000000000000000000000000000000000000000000000000 DUP2 MSTORE PUSH1 0x4 ADD PUSH2 0x2179 SWAP1 PUSH2 0x3B0E JUMP JUMPDEST PUSH1 0x40 MLOAD DUP1 SWAP2 SUB SWAP1 REVERT JUMPDEST PUSH4 0xBC197C81 PUSH1 0xE0 SHL PUSH28 0xFFFFFFFFFFFFFFFFFFFFFFFFFFFFFFFFFFFFFFFFFFFFFFFFFFFFFFFF NOT AND DUP2 PUSH28 0xFFFFFFFFFFFFFFFFFFFFFFFFFFFFFFFFFFFFFFFFFFFFFFFFFFFFFFFF NOT AND EQ PUSH2 0x2209 JUMPI PUSH1 0x40 MLOAD PUSH32 0x8C379A000000000000000000000000000000000000000000000000000000000 DUP2 MSTORE PUSH1 0x4 ADD PUSH2 0x2200 SWAP1 PUSH2 0x3B9C JUMP JUMPDEST PUSH1 0x40 MLOAD DUP1 SWAP2 SUB SWAP1 REVERT JUMPDEST POP JUMPDEST POP POP POP POP POP POP JUMP JUMPDEST PUSH0 DUP1 DUP3 PUSH20 0xFFFFFFFFFFFFFFFFFFFFFFFFFFFFFFFFFFFFFFFF AND EXTCODESIZE GT SWAP1 POP SWAP2 SWAP1 POP JUMP JUMPDEST PUSH0 PUSH1 0x40 MLOAD SWAP1 POP SWAP1 JUMP JUMPDEST PUSH0 DUP1 REVERT JUMPDEST PUSH0 DUP1 REVERT JUMPDEST PUSH0 PUSH20 0xFFFFFFFFFFFFFFFFFFFFFFFFFFFFFFFFFFFFFFFF DUP3 AND SWAP1 POP SWAP2 SWAP1 POP JUMP JUMPDEST PUSH0 PUSH2 0x226F DUP3 PUSH2 0x2246 JUMP JUMPDEST SWAP1 POP SWAP2 SWAP1 POP JUMP JUMPDEST PUSH2 0x227F DUP2 PUSH2 0x2265 JUMP JUMPDEST DUP2 EQ PUSH2 0x2289 JUMPI PUSH0 DUP1 REVERT JUMPDEST POP JUMP JUMPDEST PUSH0 DUP2 CALLDATALOAD SWAP1 POP PUSH2 0x229A DUP2 PUSH2 0x2276 JUMP JUMPDEST SWAP3 SWAP2 POP POP JUMP JUMPDEST PUSH0 DUP2 SWAP1 POP SWAP2 SWAP1 POP JUMP JUMPDEST PUSH2 0x22B2 DUP2 PUSH2 0x22A0 JUMP JUMPDEST DUP2 EQ PUSH2 0x22BC JUMPI PUSH0 DUP1 REVERT JUMPDEST POP JUMP JUMPDEST PUSH0 DUP2 CALLDATALOAD SWAP1 POP PUSH2 0x22CD DUP2 PUSH2 0x22A9 JUMP JUMPDEST SWAP3 SWAP2 POP POP JUMP JUMPDEST PUSH0 DUP1 PUSH1 0x40 DUP4 DUP6 SUB SLT ISZERO PUSH2 0x22E9 JUMPI PUSH2 0x22E8 PUSH2 0x223E JUMP JUMPDEST JUMPDEST PUSH0 PUSH2 0x22F6 DUP6 DUP3 DUP7 ADD PUSH2 0x228C JUMP JUMPDEST SWAP3 POP POP PUSH1 0x20 PUSH2 0x2307 DUP6 DUP3 DUP7 ADD PUSH2 0x22BF JUMP JUMPDEST SWAP2 POP POP SWAP3 POP SWAP3 SWAP1 POP JUMP JUMPDEST PUSH2 0x231A DUP2 PUSH2 0x22A0 JUMP JUMPDEST DUP3 MSTORE POP POP JUMP JUMPDEST PUSH0 PUSH1 0x20 DUP3 ADD SWAP1 POP PUSH2 0x2333 PUSH0 DUP4 ADD DUP5 PUSH2 0x2311 JUMP JUMPDEST SWAP3 SWAP2 POP POP JUMP JUMPDEST PUSH0 PUSH32 0xFFFFFFFF00000000000000000000000000000000000000000000000000000000 DUP3 AND SWAP1 POP SWAP2 SWAP1 POP JUMP JUMPDEST PUSH2 0x236D DUP2 PUSH2 0x2339 JUMP JUMPDEST DUP2 EQ PUSH2 0x2377 JUMPI PUSH0 DUP1 REVERT JUMPDEST POP JUMP JUMPDEST PUSH0 DUP2 CALLDATALOAD SWAP1 POP PUSH2 0x2388 DUP2 PUSH2 0x2364 JUMP JUMPDEST SWAP3 SWAP2 POP POP JUMP JUMPDEST PUSH0 PUSH1 0x20 DUP3 DUP5 SUB SLT ISZERO PUSH2 0x23A3 JUMPI PUSH2 0x23A2 PUSH2 0x223E JUMP JUMPDEST JUMPDEST PUSH0 PUSH2 0x23B0 DUP5 DUP3 DUP6 ADD PUSH2 0x237A JUMP JUMPDEST SWAP2 POP POP SWAP3 SWAP2 POP POP JUMP JUMPDEST PUSH0 DUP2 ISZERO ISZERO SWAP1 POP SWAP2 SWAP1 POP JUMP JUMPDEST PUSH2 0x23CD DUP2 PUSH2 0x23B9 JUMP JUMPDEST DUP3 MSTORE POP POP JUMP JUMPDEST PUSH0 PUSH1 0x20 DUP3 ADD SWAP1 POP PUSH2 0x23E6 PUSH0 DUP4 ADD DUP5 PUSH2 0x23C4 JUMP JUMPDEST SWAP3 SWAP2 POP POP JUMP JUMPDEST PUSH0 DUP2 MLOAD SWAP1 POP SWAP2 SWAP1 POP JUMP JUMPDEST PUSH0 DUP3 DUP3 MSTORE PUSH1 0x20 DUP3 ADD SWAP1 POP SWAP3 SWAP2 POP POP JUMP JUMPDEST PUSH0 JUMPDEST DUP4 DUP2 LT ISZERO PUSH2 0x2423 JUMPI DUP1 DUP3 ADD MLOAD DUP2 DUP5 ADD MSTORE PUSH1 0x20 DUP2 ADD SWAP1 POP PUSH2 0x2408 JUMP JUMPDEST PUSH0 DUP5 DUP5 ADD MSTORE POP POP POP POP JUMP JUMPDEST PUSH0 PUSH1 0x1F NOT PUSH1 0x1F DUP4 ADD AND SWAP1 POP SWAP2 SWAP1 POP JUMP JUMPDEST PUSH0 PUSH2 0x2448 DUP3 PUSH2 0x23EC JUMP JUMPDEST PUSH2 0x2452 DUP2 DUP6 PUSH2 0x23F6 JUMP JUMPDEST SWAP4 POP PUSH2 0x2462 DUP2 DUP6 PUSH1 0x20 DUP7 ADD PUSH2 0x2406 JUMP JUMPDEST PUSH2 0x246B DUP2 PUSH2 0x242E JUMP JUMPDEST DUP5 ADD SWAP2 POP POP SWAP3 SWAP2 POP POP JUMP JUMPDEST PUSH0 PUSH1 0x20 DUP3 ADD SWAP1 POP DUP2 DUP2 SUB PUSH0 DUP4 ADD MSTORE PUSH2 0x248E DUP2 DUP5 PUSH2 0x243E JUMP JUMPDEST SWAP1 POP SWAP3 SWAP2 POP POP JUMP JUMPDEST PUSH0 PUSH1 0x20 DUP3 DUP5 SUB SLT ISZERO PUSH2 0x24AB JUMPI PUSH2 0x24AA PUSH2 0x223E JUMP JUMPDEST JUMPDEST PUSH0 PUSH2 0x24B8 DUP5 DUP3 DUP6 ADD PUSH2 0x22BF JUMP JUMPDEST SWAP2 POP POP SWAP3 SWAP2 POP POP JUMP JUMPDEST PUSH0 DUP1 PUSH0 PUSH1 0x60 DUP5 DUP7 SUB SLT ISZERO PUSH2 0x24D8 JUMPI PUSH2 0x24D7 PUSH2 0x223E JUMP JUMPDEST JUMPDEST PUSH0 PUSH2 0x24E5 DUP7 DUP3 DUP8 ADD PUSH2 0x228C JUMP JUMPDEST SWAP4 POP POP PUSH1 0x20 PUSH2 0x24F6 DUP7 DUP3 DUP8 ADD PUSH2 0x22BF JUMP JUMPDEST SWAP3 POP POP PUSH1 0x40 PUSH2 0x2507 DUP7 DUP3 DUP8 ADD PUSH2 0x22BF JUMP JUMPDEST SWAP2 POP POP SWAP3 POP SWAP3 POP SWAP3 JUMP JUMPDEST PUSH0 DUP1 REVERT JUMPDEST PUSH32 0x4E487B7100000000000000000000000000000000000000000000000000000000 PUSH0 MSTORE PUSH1 0x41 PUSH1 0x4 MSTORE PUSH1 0x24 PUSH0 REVERT JUMPDEST PUSH2 0x254B DUP3 PUSH2 0x242E JUMP JUMPDEST DUP2 ADD DUP2 DUP2 LT PUSH8 0xFFFFFFFFFFFFFFFF DUP3 GT OR ISZERO PUSH2 0x256A JUMPI PUSH2 0x2569 PUSH2 0x2515 JUMP JUMPDEST JUMPDEST DUP1 PUSH1 0x40 MSTORE POP POP POP JUMP JUMPDEST PUSH0 PUSH2 0x257C PUSH2 0x2235 JUMP JUMPDEST SWAP1 POP PUSH2 0x2588 DUP3 DUP3 PUSH2 0x2542 JUMP JUMPDEST SWAP2 SWAP1 POP JUMP JUMPDEST PUSH0 PUSH8 0xFFFFFFFFFFFFFFFF DUP3 GT ISZERO PUSH2 0x25A7 JUMPI PUSH2 0x25A6 PUSH2 0x2515 JUMP JUMPDEST JUMPDEST PUSH1 0x20 DUP3 MUL SWAP1 POP PUSH1 0x20 DUP2 ADD SWAP1 POP SWAP2 SWAP1 POP JUMP JUMPDEST PUSH0 DUP1 REVERT JUMPDEST PUSH0 PUSH2 0x25CE PUSH2 0x25C9 DUP5 PUSH2 0x258D JUMP JUMPDEST PUSH2 0x2573 JUMP JUMPDEST SWAP1 POP DUP1 DUP4 DUP3 MSTORE PUSH1 0x20 DUP3 ADD SWAP1 POP PUSH1 0x20 DUP5 MUL DUP4 ADD DUP6 DUP2 GT ISZERO PUSH2 0x25F1 JUMPI PUSH2 0x25F0 PUSH2 0x25B8 JUMP JUMPDEST JUMPDEST DUP4 JUMPDEST DUP2 DUP2 LT ISZERO PUSH2 0x261A JUMPI DUP1 PUSH2 0x2606 DUP9 DUP3 PUSH2 0x22BF JUMP JUMPDEST DUP5 MSTORE PUSH1 0x20 DUP5 ADD SWAP4 POP POP PUSH1 0x20 DUP2 ADD SWAP1 POP PUSH2 0x25F3 JUMP JUMPDEST POP POP POP SWAP4 SWAP3 POP POP POP JUMP JUMPDEST PUSH0 DUP3 PUSH1 0x1F DUP4 ADD SLT PUSH2 0x2638 JUMPI PUSH2 0x2637 PUSH2 0x2511 JUMP JUMPDEST JUMPDEST DUP2 CALLDATALOAD PUSH2 0x2648 DUP5 DUP3 PUSH1 0x20 DUP7 ADD PUSH2 0x25BC JUMP JUMPDEST SWAP2 POP POP SWAP3 SWAP2 POP POP JUMP JUMPDEST PUSH0 DUP1 REVERT JUMPDEST PUSH0 PUSH8 0xFFFFFFFFFFFFFFFF DUP3 GT ISZERO PUSH2 0x266F JUMPI PUSH2 0x266E PUSH2 0x2515 JUMP JUMPDEST JUMPDEST PUSH2 0x2678 DUP3 PUSH2 0x242E JUMP JUMPDEST SWAP1 POP PUSH1 0x20 DUP2 ADD SWAP1 POP SWAP2 SWAP1 POP JUMP JUMPDEST DUP3 DUP2 DUP4 CALLDATACOPY PUSH0 DUP4 DUP4 ADD MSTORE POP POP POP JUMP JUMPDEST PUSH0 PUSH2 0x26A5 PUSH2 0x26A0 DUP5 PUSH2 0x2655 JUMP JUMPDEST PUSH2 0x2573 JUMP JUMPDEST SWAP1 POP DUP3 DUP2 MSTORE PUSH1 0x20 DUP2 ADD DUP5 DUP5 DUP5 ADD GT ISZERO PUSH2 0x26C1 JUMPI PUSH2 0x26C0 PUSH2 0x2651 JUMP JUMPDEST JUMPDEST PUSH2 0x26CC DUP5 DUP3 DUP6 PUSH2 0x2685 JUMP JUMPDEST POP SWAP4 SWAP3 POP POP POP JUMP JUMPDEST PUSH0 DUP3 PUSH1 0x1F DUP4 ADD SLT PUSH2 0x26E8 JUMPI PUSH2 0x26E7 PUSH2 0x2511 JUMP JUMPDEST JUMPDEST DUP2 CALLDATALOAD PUSH2 0x26F8 DUP5 DUP3 PUSH1 0x20 DUP7 ADD PUSH2 0x2693 JUMP JUMPDEST SWAP2 POP POP SWAP3 SWAP2 POP POP JUMP JUMPDEST PUSH0 DUP1 PUSH0 DUP1 PUSH0 PUSH1 0xA0 DUP7 DUP9 SUB SLT ISZERO PUSH2 0x271A JUMPI PUSH2 0x2719 PUSH2 0x223E JUMP JUMPDEST JUMPDEST PUSH0 PUSH2 0x2727 DUP9 DUP3 DUP10 ADD PUSH2 0x228C JUMP JUMPDEST SWAP6 POP POP PUSH1 0x20 PUSH2 0x2738 DUP9 DUP3 DUP10 ADD PUSH2 0x228C JUMP JUMPDEST SWAP5 POP POP PUSH1 0x40 DUP7 ADD CALLDATALOAD PUSH8 0xFFFFFFFFFFFFFFFF DUP2 GT ISZERO PUSH2 0x2759 JUMPI PUSH2 0x2758 PUSH2 0x2242 JUMP JUMPDEST JUMPDEST PUSH2 0x2765 DUP9 DUP3 DUP10 ADD PUSH2 0x2624 JUMP JUMPDEST SWAP4 POP POP PUSH1 0x60 DUP7 ADD CALLDATALOAD PUSH8 0xFFFFFFFFFFFFFFFF DUP2 GT ISZERO PUSH2 0x2786 JUMPI PUSH2 0x2785 PUSH2 0x2242 JUMP JUMPDEST JUMPDEST PUSH2 0x2792 DUP9 DUP3 DUP10 ADD PUSH2 0x2624 JUMP JUMPDEST SWAP3 POP POP PUSH1 0x80 DUP7 ADD CALLDATALOAD PUSH8 0xFFFFFFFFFFFFFFFF DUP2 GT ISZERO PUSH2 0x27B3 JUMPI PUSH2 0x27B2 PUSH2 0x2242 JUMP JUMPDEST JUMPDEST PUSH2 0x27BF DUP9 DUP3 DUP10 ADD PUSH2 0x26D4 JUMP JUMPDEST SWAP2 POP POP SWAP3 SWAP6 POP SWAP3 SWAP6 SWAP1 SWAP4 POP JUMP JUMPDEST PUSH0 PUSH8 0xFFFFFFFFFFFFFFFF DUP3 GT ISZERO PUSH2 0x27E6 JUMPI PUSH2 0x27E5 PUSH2 0x2515 JUMP JUMPDEST JUMPDEST PUSH1 0x20 DUP3 MUL SWAP1 POP PUSH1 0x20 DUP2 ADD SWAP1 POP SWAP2 SWAP1 POP JUMP JUMPDEST PUSH0 PUSH2 0x2809 PUSH2 0x2804 DUP5 PUSH2 0x27CC JUMP JUMPDEST PUSH2 0x2573 JUMP JUMPDEST SWAP1 POP DUP1 DUP4 DUP3 MSTORE PUSH1 0x20 DUP3 ADD SWAP1 POP PUSH1 0x20 DUP5 MUL DUP4 ADD DUP6 DUP2 GT ISZERO PUSH2 0x282C JUMPI PUSH2 0x282B PUSH2 0x25B8 JUMP JUMPDEST JUMPDEST DUP4 JUMPDEST DUP2 DUP2 LT ISZERO PUSH2 0x2855 JUMPI DUP1 PUSH2 0x2841 DUP9 DUP3 PUSH2 0x228C JUMP JUMPDEST DUP5 MSTORE PUSH1 0x20 DUP5 ADD SWAP4 POP POP PUSH1 0x20 DUP2 ADD SWAP1 POP PUSH2 0x282E JUMP JUMPDEST POP POP POP SWAP4 SWAP3 POP POP POP JUMP JUMPDEST PUSH0 DUP3 PUSH1 0x1F DUP4 ADD SLT PUSH2 0x2873 JUMPI PUSH2 0x2872 PUSH2 0x2511 JUMP JUMPDEST JUMPDEST DUP2 CALLDATALOAD PUSH2 0x2883 DUP5 DUP3 PUSH1 0x20 DUP7 ADD PUSH2 0x27F7 JUMP JUMPDEST SWAP2 POP POP SWAP3 SWAP2 POP POP JUMP JUMPDEST PUSH0 DUP1 PUSH1 0x40 DUP4 DUP6 SUB SLT ISZERO PUSH2 0x28A2 JUMPI PUSH2 0x28A1 PUSH2 0x223E JUMP JUMPDEST JUMPDEST PUSH0 DUP4 ADD CALLDATALOAD PUSH8 0xFFFFFFFFFFFFFFFF DUP2 GT ISZERO PUSH2 0x28BF JUMPI PUSH2 0x28BE PUSH2 0x2242 JUMP JUMPDEST JUMPDEST PUSH2 0x28CB DUP6 DUP3 DUP7 ADD PUSH2 0x285F JUMP JUMPDEST SWAP3 POP POP PUSH1 0x20 DUP4 ADD CALLDATALOAD PUSH8 0xFFFFFFFFFFFFFFFF DUP2 GT ISZERO PUSH2 0x28EC JUMPI PUSH2 0x28EB PUSH2 0x2242 JUMP JUMPDEST JUMPDEST PUSH2 0x28F8 DUP6 DUP3 DUP7 ADD PUSH2 0x2624 JUMP JUMPDEST SWAP2 POP POP SWAP3 POP SWAP3 SWAP1 POP JUMP JUMPDEST PUSH0 DUP2 MLOAD SWAP1 POP SWAP2 SWAP1 POP JUMP JUMPDEST PUSH0 DUP3 DUP3 MSTORE PUSH1 0x20 DUP3 ADD SWAP1 POP SWAP3 SWAP2 POP POP JUMP JUMPDEST PUSH0 DUP2 SWAP1 POP PUSH1 0x20 DUP3 ADD SWAP1 POP SWAP2 SWAP1 POP JUMP JUMPDEST PUSH2 0x2934 DUP2 PUSH2 0x22A0 JUMP JUMPDEST DUP3 MSTORE POP POP JUMP JUMPDEST PUSH0 PUSH2 0x2945 DUP4 DUP4 PUSH2 0x292B JUMP JUMPDEST PUSH1 0x20 DUP4 ADD SWAP1 POP SWAP3 SWAP2 POP POP JUMP JUMPDEST PUSH0 PUSH1 0x20 DUP3 ADD SWAP1 POP SWAP2 SWAP1 POP JUMP JUMPDEST PUSH0 PUSH2 0x2967 DUP3 PUSH2 0x2902 JUMP JUMPDEST PUSH2 0x2971 DUP2 DUP6 PUSH2 0x290C JUMP JUMPDEST SWAP4 POP PUSH2 0x297C DUP4 PUSH2 0x291C JUMP JUMPDEST DUP1 PUSH0 JUMPDEST DUP4 DUP2 LT ISZERO PUSH2 0x29AC JUMPI DUP2 MLOAD PUSH2 0x2993 DUP9 DUP3 PUSH2 0x293A JUMP JUMPDEST SWAP8 POP PUSH2 0x299E DUP4 PUSH2 0x2951 JUMP JUMPDEST SWAP3 POP POP PUSH1 0x1 DUP2 ADD SWAP1 POP PUSH2 0x297F JUMP JUMPDEST POP DUP6 SWAP4 POP POP POP POP SWAP3 SWAP2 POP POP JUMP JUMPDEST PUSH0 PUSH1 0x20 DUP3 ADD SWAP1 POP DUP2 DUP2 SUB PUSH0 DUP4 ADD MSTORE PUSH2 0x29D1 DUP2 DUP5 PUSH2 0x295D JUMP JUMPDEST SWAP1 POP SWAP3 SWAP2 POP POP JUMP JUMPDEST PUSH0 DUP1 PUSH0 DUP1 PUSH0 PUSH1 0xA0 DUP7 DUP9 SUB SLT ISZERO PUSH2 0x29F2 JUMPI PUSH2 0x29F1 PUSH2 0x223E JUMP JUMPDEST JUMPDEST PUSH0 PUSH2 0x29FF DUP9 DUP3 DUP10 ADD PUSH2 0x228C JUMP JUMPDEST SWAP6 POP POP PUSH1 0x20 DUP7 ADD CALLDATALOAD PUSH8 0xFFFFFFFFFFFFFFFF DUP2 GT ISZERO PUSH2 0x2A20 JUMPI PUSH2 0x2A1F PUSH2 0x2242 JUMP JUMPDEST JUMPDEST PUSH2 0x2A2C DUP9 DUP3 DUP10 ADD PUSH2 0x2624 JUMP JUMPDEST SWAP5 POP POP PUSH1 0x40 DUP7 ADD CALLDATALOAD PUSH8 0xFFFFFFFFFFFFFFFF DUP2 GT ISZERO PUSH2 0x2A4D JUMPI PUSH2 0x2A4C PUSH2 0x2242 JUMP JUMPDEST JUMPDEST PUSH2 0x2A59 DUP9 DUP3 DUP10 ADD PUSH2 0x2624 JUMP JUMPDEST SWAP4 POP POP PUSH1 0x60 DUP7 ADD CALLDATALOAD PUSH8 0xFFFFFFFFFFFFFFFF DUP2 GT ISZERO PUSH2 0x2A7A JUMPI PUSH2 0x2A79 PUSH2 0x2242 JUMP JUMPDEST JUMPDEST PUSH2 0x2A86 DUP9 DUP3 DUP10 ADD PUSH2 0x2624 JUMP JUMPDEST SWAP3 POP POP PUSH1 0x80 DUP7 ADD CALLDATALOAD PUSH8 0xFFFFFFFFFFFFFFFF DUP2 GT ISZERO PUSH2 0x2AA7 JUMPI PUSH2 0x2AA6 PUSH2 0x2242 JUMP JUMPDEST JUMPDEST PUSH2 0x2AB3 DUP9 DUP3 DUP10 ADD PUSH2 0x2624 JUMP JUMPDEST SWAP2 POP POP SWAP3 SWAP6 POP SWAP3 SWAP6 SWAP1 SWAP4 POP JUMP JUMPDEST PUSH0 DUP1 PUSH1 0x40 DUP4 DUP6 SUB SLT ISZERO PUSH2 0x2AD6 JUMPI PUSH2 0x2AD5 PUSH2 0x223E JUMP JUMPDEST JUMPDEST PUSH0 DUP4 ADD CALLDATALOAD PUSH8 0xFFFFFFFFFFFFFFFF DUP2 GT ISZERO PUSH2 0x2AF3 JUMPI PUSH2 0x2AF2 PUSH2 0x2242 JUMP JUMPDEST JUMPDEST PUSH2 0x2AFF DUP6 DUP3 DUP7 ADD PUSH2 0x2624 JUMP JUMPDEST SWAP3 POP POP PUSH1 0x20 DUP4 ADD CALLDATALOAD PUSH8 0xFFFFFFFFFFFFFFFF DUP2 GT ISZERO PUSH2 0x2B20 JUMPI PUSH2 0x2B1F PUSH2 0x2242 JUMP JUMPDEST JUMPDEST PUSH2 0x2B2C DUP6 DUP3 DUP7 ADD PUSH2 0x2624 JUMP JUMPDEST SWAP2 POP POP SWAP3 POP SWAP3 SWAP1 POP JUMP JUMPDEST PUSH0 PUSH8 0xFFFFFFFFFFFFFFFF DUP3 GT ISZERO PUSH2 0x2B50 JUMPI PUSH2 0x2B4F PUSH2 0x2515 JUMP JUMPDEST JUMPDEST PUSH2 0x2B59 DUP3 PUSH2 0x242E JUMP JUMPDEST SWAP1 POP PUSH1 0x20 DUP2 ADD SWAP1 POP SWAP2 SWAP1 POP JUMP JUMPDEST PUSH0 PUSH2 0x2B78 PUSH2 0x2B73 DUP5 PUSH2 0x2B36 JUMP JUMPDEST PUSH2 0x2573 JUMP JUMPDEST SWAP1 POP DUP3 DUP2 MSTORE PUSH1 0x20 DUP2 ADD DUP5 DUP5 DUP5 ADD GT ISZERO PUSH2 0x2B94 JUMPI PUSH2 0x2B93 PUSH2 0x2651 JUMP JUMPDEST JUMPDEST PUSH2 0x2B9F DUP5 DUP3 DUP6 PUSH2 0x2685 JUMP JUMPDEST POP SWAP4 SWAP3 POP POP POP JUMP JUMPDEST PUSH0 DUP3 PUSH1 0x1F DUP4 ADD SLT PUSH2 0x2BBB JUMPI PUSH2 0x2BBA PUSH2 0x2511 JUMP JUMPDEST JUMPDEST DUP2 CALLDATALOAD PUSH2 0x2BCB DUP5 DUP3 PUSH1 0x20 DUP7 ADD PUSH2 0x2B66 JUMP JUMPDEST SWAP2 POP POP SWAP3 SWAP2 POP POP JUMP JUMPDEST PUSH0 DUP1 PUSH1 0x40 DUP4 DUP6 SUB SLT ISZERO PUSH2 0x2BEA JUMPI PUSH2 0x2BE9 PUSH2 0x223E JUMP JUMPDEST JUMPDEST PUSH0 PUSH2 0x2BF7 DUP6 DUP3 DUP7 ADD PUSH2 0x22BF JUMP JUMPDEST SWAP3 POP POP PUSH1 0x20 DUP4 ADD CALLDATALOAD PUSH8 0xFFFFFFFFFFFFFFFF DUP2 GT ISZERO PUSH2 0x2C18 JUMPI PUSH2 0x2C17 PUSH2 0x2242 JUMP JUMPDEST JUMPDEST PUSH2 0x2C24 DUP6 DUP3 DUP7 ADD PUSH2 0x2BA7 JUMP JUMPDEST SWAP2 POP POP SWAP3 POP SWAP3 SWAP1 POP JUMP JUMPDEST PUSH2 0x2C37 DUP2 PUSH2 0x2265 JUMP JUMPDEST DUP3 MSTORE POP POP JUMP JUMPDEST PUSH0 PUSH1 0x20 DUP3 ADD SWAP1 POP PUSH2 0x2C50 PUSH0 DUP4 ADD DUP5 PUSH2 0x2C2E JUMP JUMPDEST SWAP3 SWAP2 POP POP JUMP JUMPDEST PUSH2 0x2C5F DUP2 PUSH2 0x23B9 JUMP JUMPDEST DUP2 EQ PUSH2 0x2C69 JUMPI PUSH0 DUP1 REVERT JUMPDEST POP JUMP JUMPDEST PUSH0 DUP2 CALLDATALOAD SWAP1 POP PUSH2 0x2C7A DUP2 PUSH2 0x2C56 JUMP JUMPDEST SWAP3 SWAP2 POP POP JUMP JUMPDEST PUSH0 DUP1 PUSH1 0x40 DUP4 DUP6 SUB SLT ISZERO PUSH2 0x2C96 JUMPI PUSH2 0x2C95 PUSH2 0x223E JUMP JUMPDEST JUMPDEST PUSH0 PUSH2 0x2CA3 DUP6 DUP3 DUP7 ADD PUSH2 0x228C JUMP JUMPDEST SWAP3 POP POP PUSH1 0x20 PUSH2 0x2CB4 DUP6 DUP3 DUP7 ADD PUSH2 0x2C6C JUMP JUMPDEST SWAP2 POP POP SWAP3 POP SWAP3 SWAP1 POP JUMP JUMPDEST PUSH0 DUP1 PUSH1 0x40 DUP4 DUP6 SUB SLT ISZERO PUSH2 0x2CD4 JUMPI PUSH2 0x2CD3 PUSH2 0x223E JUMP JUMPDEST JUMPDEST PUSH0 PUSH2 0x2CE1 DUP6 DUP3 DUP7 ADD PUSH2 0x22BF JUMP JUMPDEST SWAP3 POP POP PUSH1 0x20 PUSH2 0x2CF2 DUP6 DUP3 DUP7 ADD PUSH2 0x22BF JUMP JUMPDEST SWAP2 POP POP SWAP3 POP SWAP3 SWAP1 POP JUMP JUMPDEST PUSH0 DUP1 PUSH0 PUSH1 0x60 DUP5 DUP7 SUB SLT ISZERO PUSH2 0x2D13 JUMPI PUSH2 0x2D12 PUSH2 0x223E JUMP JUMPDEST JUMPDEST PUSH0 PUSH2 0x2D20 DUP7 DUP3 DUP8 ADD PUSH2 0x228C JUMP JUMPDEST SWAP4 POP POP PUSH1 0x20 DUP5 ADD CALLDATALOAD PUSH8 0xFFFFFFFFFFFFFFFF DUP2 GT ISZERO PUSH2 0x2D41 JUMPI PUSH2 0x2D40 PUSH2 0x2242 JUMP JUMPDEST JUMPDEST PUSH2 0x2D4D DUP7 DUP3 DUP8 ADD PUSH2 0x2624 JUMP JUMPDEST SWAP3 POP POP PUSH1 0x40 DUP5 ADD CALLDATALOAD PUSH8 0xFFFFFFFFFFFFFFFF DUP2 GT ISZERO PUSH2 0x2D6E JUMPI PUSH2 0x2D6D PUSH2 0x2242 JUMP JUMPDEST JUMPDEST PUSH2 0x2D7A DUP7 DUP3 DUP8 ADD PUSH2 0x2624 JUMP JUMPDEST SWAP2 POP POP SWAP3 POP SWAP3 POP SWAP3 JUMP JUMPDEST PUSH0 DUP1 PUSH1 0x40 DUP4 DUP6 SUB SLT ISZERO PUSH2 0x2D9A JUMPI PUSH2 0x2D99 PUSH2 0x223E JUMP JUMPDEST JUMPDEST PUSH0 PUSH2 0x2DA7 DUP6 DUP3 DUP7 ADD PUSH2 0x228C JUMP JUMPDEST SWAP3 POP POP PUSH1 0x20 PUSH2 0x2DB8 DUP6 DUP3 DUP7 ADD PUSH2 0x228C JUMP JUMPDEST SWAP2 POP POP SWAP3 POP SWAP3 SWAP1 POP JUMP JUMPDEST PUSH0 DUP1 PUSH0 DUP1 PUSH0 PUSH1 0xA0 DUP7 DUP9 SUB SLT ISZERO PUSH2 0x2DDB JUMPI PUSH2 0x2DDA PUSH2 0x223E JUMP JUMPDEST JUMPDEST PUSH0 PUSH2 0x2DE8 DUP9 DUP3 DUP10 ADD PUSH2 0x228C JUMP JUMPDEST SWAP6 POP POP PUSH1 0x20 PUSH2 0x2DF9 DUP9 DUP3 DUP10 ADD PUSH2 0x228C JUMP JUMPDEST SWAP5 POP POP PUSH1 0x40 PUSH2 0x2E0A DUP9 DUP3 DUP10 ADD PUSH2 0x22BF JUMP JUMPDEST SWAP4 POP POP PUSH1 0x60 PUSH2 0x2E1B DUP9 DUP3 DUP10 ADD PUSH2 0x22BF JUMP JUMPDEST SWAP3 POP POP PUSH1 0x80 DUP7 ADD CALLDATALOAD PUSH8 0xFFFFFFFFFFFFFFFF DUP2 GT ISZERO PUSH2 0x2E3C JUMPI PUSH2 0x2E3B PUSH2 0x2242 JUMP JUMPDEST JUMPDEST PUSH2 0x2E48 DUP9 DUP3 DUP10 ADD PUSH2 0x26D4 JUMP JUMPDEST SWAP2 POP POP SWAP3 SWAP6 POP SWAP3 SWAP6 SWAP1 SWAP4 POP JUMP JUMPDEST PUSH0 PUSH1 0x20 DUP3 DUP5 SUB SLT ISZERO PUSH2 0x2E6A JUMPI PUSH2 0x2E69 PUSH2 0x223E JUMP JUMPDEST JUMPDEST PUSH0 PUSH2 0x2E77 DUP5 DUP3 DUP6 ADD PUSH2 0x228C JUMP JUMPDEST SWAP2 POP POP SWAP3 SWAP2 POP POP JUMP JUMPDEST PUSH32 0x455243313135353A2061646472657373207A65726F206973206E6F7420612076 PUSH0 DUP3 ADD MSTORE PUSH32 0x616C6964206F776E657200000000000000000000000000000000000000000000 PUSH1 0x20 DUP3 ADD MSTORE POP JUMP JUMPDEST PUSH0 PUSH2 0x2EDA PUSH1 0x2A DUP4 PUSH2 0x23F6 JUMP JUMPDEST SWAP2 POP PUSH2 0x2EE5 DUP3 PUSH2 0x2E80 JUMP JUMPDEST PUSH1 0x40 DUP3 ADD SWAP1 POP SWAP2 SWAP1 POP JUMP JUMPDEST PUSH0 PUSH1 0x20 DUP3 ADD SWAP1 POP DUP2 DUP2 SUB PUSH0 DUP4 ADD MSTORE PUSH2 0x2F07 DUP2 PUSH2 0x2ECE JUMP JUMPDEST SWAP1 POP SWAP2 SWAP1 POP JUMP JUMPDEST PUSH32 0x4E487B7100000000000000000000000000000000000000000000000000000000 PUSH0 MSTORE PUSH1 0x22 PUSH1 0x4 MSTORE PUSH1 0x24 PUSH0 REVERT JUMPDEST PUSH0 PUSH1 0x2 DUP3 DIV SWAP1 POP PUSH1 0x1 DUP3 AND DUP1 PUSH2 0x2F52 JUMPI PUSH1 0x7F DUP3 AND SWAP2 POP JUMPDEST PUSH1 0x20 DUP3 LT DUP2 SUB PUSH2 0x2F65 JUMPI PUSH2 0x2F64 PUSH2 0x2F0E JUMP JUMPDEST JUMPDEST POP SWAP2 SWAP1 POP JUMP JUMPDEST PUSH32 0x455243313135353A2063616C6C6572206973206E6F7420746F6B656E206F776E PUSH0 DUP3 ADD MSTORE PUSH32 0x6572206F7220617070726F766564000000000000000000000000000000000000 PUSH1 0x20 DUP3 ADD MSTORE POP JUMP JUMPDEST PUSH0 PUSH2 0x2FC5 PUSH1 0x2E DUP4 PUSH2 0x23F6 JUMP JUMPDEST SWAP2 POP PUSH2 0x2FD0 DUP3 PUSH2 0x2F6B JUMP JUMPDEST PUSH1 0x40 DUP3 ADD SWAP1 POP SWAP2 SWAP1 POP JUMP JUMPDEST PUSH0 PUSH1 0x20 DUP3 ADD SWAP1 POP DUP2 DUP2 SUB PUSH0 DUP4 ADD MSTORE PUSH2 0x2FF2 DUP2 PUSH2 0x2FB9 JUMP JUMPDEST SWAP1 POP SWAP2 SWAP1 POP JUMP JUMPDEST PUSH32 0x455243313135353A206163636F756E747320616E6420696473206C656E677468 PUSH0 DUP3 ADD MSTORE PUSH32 0x206D69736D617463680000000000000000000000000000000000000000000000 PUSH1 0x20 DUP3 ADD MSTORE POP JUMP JUMPDEST PUSH0 PUSH2 0x3053 PUSH1 0x29 DUP4 PUSH2 0x23F6 JUMP JUMPDEST SWAP2 POP PUSH2 0x305E DUP3 PUSH2 0x2FF9 JUMP JUMPDEST PUSH1 0x40 DUP3 ADD SWAP1 POP SWAP2 SWAP1 POP JUMP JUMPDEST PUSH0 PUSH1 0x20 DUP3 ADD SWAP1 POP DUP2 DUP2 SUB PUSH0 DUP4 ADD MSTORE PUSH2 0x3080 DUP2 PUSH2 0x3047 JUMP JUMPDEST SWAP1 POP SWAP2 SWAP1 POP JUMP JUMPDEST PUSH32 0x4E487B7100000000000000000000000000000000000000000000000000000000 PUSH0 MSTORE PUSH1 0x32 PUSH1 0x4 MSTORE PUSH1 0x24 PUSH0 REVERT JUMPDEST PUSH32 0x4E487B7100000000000000000000000000000000000000000000000000000000 PUSH0 MSTORE PUSH1 0x11 PUSH1 0x4 MSTORE PUSH1 0x24 PUSH0 REVERT JUMPDEST PUSH0 PUSH2 0x30EB DUP3 PUSH2 0x22A0 JUMP JUMPDEST SWAP2 POP PUSH32 0xFFFFFFFFFFFFFFFFFFFFFFFFFFFFFFFFFFFFFFFFFFFFFFFFFFFFFFFFFFFFFFFF DUP3 SUB PUSH2 0x311D JUMPI PUSH2 0x311C PUSH2 0x30B4 JUMP JUMPDEST JUMPDEST PUSH1 0x1 DUP3 ADD SWAP1 POP SWAP2 SWAP1 POP JUMP JUMPDEST PUSH0 DUP2 SWAP1 POP DUP2 PUSH0 MSTORE PUSH1 0x20 PUSH0 KECCAK256 SWAP1 POP SWAP2 SWAP1 POP JUMP JUMPDEST PUSH0 PUSH1 0x20 PUSH1 0x1F DUP4 ADD DIV SWAP1 POP SWAP2 SWAP1 POP JUMP JUMPDEST PUSH0 DUP3 DUP3 SHL SWAP1 POP SWAP3 SWAP2 POP POP JUMP JUMPDEST PUSH0 PUSH1 0x8 DUP4 MUL PUSH2 0x3184 PUSH32 0xFFFFFFFFFFFFFFFFFFFFFFFFFFFFFFFFFFFFFFFFFFFFFFFFFFFFFFFFFFFFFFFF DUP3 PUSH2 0x3149 JUMP JUMPDEST PUSH2 0x318E DUP7 DUP4 PUSH2 0x3149 JUMP JUMPDEST SWAP6 POP DUP1 NOT DUP5 AND SWAP4 POP DUP1 DUP7 AND DUP5 OR SWAP3 POP POP POP SWAP4 SWAP3 POP POP POP JUMP JUMPDEST PUSH0 DUP2 SWAP1 POP SWAP2 SWAP1 POP JUMP JUMPDEST PUSH0 PUSH2 0x31C9 PUSH2 0x31C4 PUSH2 0x31BF DUP5 PUSH2 0x22A0 JUMP JUMPDEST PUSH2 0x31A6 JUMP JUMPDEST PUSH2 0x22A0 JUMP JUMPDEST SWAP1 POP SWAP2 SWAP1 POP JUMP JUMPDEST PUSH0 DUP2 SWAP1 POP SWAP2 SWAP1 POP JUMP JUMPDEST PUSH2 0x31E2 DUP4 PUSH2 0x31AF JUMP JUMPDEST PUSH2 0x31F6 PUSH2 0x31EE DUP3 PUSH2 0x31D0 JUMP JUMPDEST DUP5 DUP5 SLOAD PUSH2 0x3155 JUMP JUMPDEST DUP3 SSTORE POP POP POP POP JUMP JUMPDEST PUSH0 SWAP1 JUMP JUMPDEST PUSH2 0x320A PUSH2 0x31FE JUMP JUMPDEST PUSH2 0x3215 DUP2 DUP5 DUP5 PUSH2 0x31D9 JUMP JUMPDEST POP POP POP JUMP JUMPDEST JUMPDEST DUP2 DUP2 LT ISZERO PUSH2 0x3238 JUMPI PUSH2 0x322D PUSH0 DUP3 PUSH2 0x3202 JUMP JUMPDEST PUSH1 0x1 DUP2 ADD SWAP1 POP PUSH2 0x321B JUMP JUMPDEST POP POP JUMP JUMPDEST PUSH1 0x1F DUP3 GT ISZERO PUSH2 0x327D JUMPI PUSH2 0x324E DUP2 PUSH2 0x3128 JUMP JUMPDEST PUSH2 0x3257 DUP5 PUSH2 0x313A JUMP JUMPDEST DUP2 ADD PUSH1 0x20 DUP6 LT ISZERO PUSH2 0x3266 JUMPI DUP2 SWAP1 POP JUMPDEST PUSH2 0x327A PUSH2 0x3272 DUP6 PUSH2 0x313A JUMP JUMPDEST DUP4 ADD DUP3 PUSH2 0x321A JUMP JUMPDEST POP POP JUMPDEST POP POP POP JUMP JUMPDEST PUSH0 DUP3 DUP3 SHR SWAP1 POP SWAP3 SWAP2 POP POP JUMP JUMPDEST PUSH0 PUSH2 0x329D PUSH0 NOT DUP5 PUSH1 0x8 MUL PUSH2 0x3282 JUMP JUMPDEST NOT DUP1 DUP4 AND SWAP2 POP POP SWAP3 SWAP2 POP POP JUMP JUMPDEST PUSH0 PUSH2 0x32B5 DUP4 DUP4 PUSH2 0x328E JUMP JUMPDEST SWAP2 POP DUP3 PUSH1 0x2 MUL DUP3 OR SWAP1 POP SWAP3 SWAP2 POP POP JUMP JUMPDEST PUSH2 0x32CE DUP3 PUSH2 0x23EC JUMP JUMPDEST PUSH8 0xFFFFFFFFFFFFFFFF DUP2 GT ISZERO PUSH2 0x32E7 JUMPI PUSH2 0x32E6 PUSH2 0x2515 JUMP JUMPDEST JUMPDEST PUSH2 0x32F1 DUP3 SLOAD PUSH2 0x2F3B JUMP JUMPDEST PUSH2 0x32FC DUP3 DUP3 DUP6 PUSH2 0x323C JUMP JUMPDEST PUSH0 PUSH1 0x20 SWAP1 POP PUSH1 0x1F DUP4 GT PUSH1 0x1 DUP2 EQ PUSH2 0x332D JUMPI PUSH0 DUP5 ISZERO PUSH2 0x331B JUMPI DUP3 DUP8 ADD MLOAD SWAP1 POP JUMPDEST PUSH2 0x3325 DUP6 DUP3 PUSH2 0x32AA JUMP JUMPDEST DUP7 SSTORE POP PUSH2 0x338C JUMP JUMPDEST PUSH1 0x1F NOT DUP5 AND PUSH2 0x333B DUP7 PUSH2 0x3128 JUMP JUMPDEST PUSH0 JUMPDEST DUP3 DUP2 LT ISZERO PUSH2 0x3362 JUMPI DUP5 DUP10 ADD MLOAD DUP3 SSTORE PUSH1 0x1 DUP3 ADD SWAP2 POP PUSH1 0x20 DUP6 ADD SWAP5 POP PUSH1 0x20 DUP2 ADD SWAP1 POP PUSH2 0x333D JUMP JUMPDEST DUP7 DUP4 LT ISZERO PUSH2 0x337F JUMPI DUP5 DUP10 ADD MLOAD PUSH2 0x337B PUSH1 0x1F DUP10 AND DUP3 PUSH2 0x328E JUMP JUMPDEST DUP4 SSTORE POP JUMPDEST PUSH1 0x1 PUSH1 0x2 DUP9 MUL ADD DUP9 SSTORE POP POP POP JUMPDEST POP POP POP POP POP POP JUMP JUMPDEST PUSH32 0x4F776E61626C653A206E6577206F776E657220697320746865207A65726F2061 PUSH0 DUP3 ADD MSTORE PUSH32 0x6464726573730000000000000000000000000000000000000000000000000000 PUSH1 0x20 DUP3 ADD MSTORE POP JUMP JUMPDEST PUSH0 PUSH2 0x33EE PUSH1 0x26 DUP4 PUSH2 0x23F6 JUMP JUMPDEST SWAP2 POP PUSH2 0x33F9 DUP3 PUSH2 0x3394 JUMP JUMPDEST PUSH1 0x40 DUP3 ADD SWAP1 POP SWAP2 SWAP1 POP JUMP JUMPDEST PUSH0 PUSH1 0x20 DUP3 ADD SWAP1 POP DUP2 DUP2 SUB PUSH0 DUP4 ADD MSTORE PUSH2 0x341B DUP2 PUSH2 0x33E2 JUMP JUMPDEST SWAP1 POP SWAP2 SWAP1 POP JUMP JUMPDEST PUSH32 0x4F776E61626C653A2063616C6C6572206973206E6F7420746865206F776E6572 PUSH0 DUP3 ADD MSTORE POP JUMP JUMPDEST PUSH0 PUSH2 0x3456 PUSH1 0x20 DUP4 PUSH2 0x23F6 JUMP JUMPDEST SWAP2 POP PUSH2 0x3461 DUP3 PUSH2 0x3422 JUMP JUMPDEST PUSH1 0x20 DUP3 ADD SWAP1 POP SWAP2 SWAP1 POP JUMP JUMPDEST PUSH0 PUSH1 0x20 DUP3 ADD SWAP1 POP DUP2 DUP2 SUB PUSH0 DUP4 ADD MSTORE PUSH2 0x3483 DUP2 PUSH2 0x344A JUMP JUMPDEST SWAP1 POP SWAP2 SWAP1 POP JUMP JUMPDEST PUSH32 0x455243313135353A206D696E7420746F20746865207A65726F20616464726573 PUSH0 DUP3 ADD MSTORE PUSH32 0x7300000000000000000000000000000000000000000000000000000000000000 PUSH1 0x20 DUP3 ADD MSTORE POP JUMP JUMPDEST PUSH0 PUSH2 0x34E4 PUSH1 0x21 DUP4 PUSH2 0x23F6 JUMP JUMPDEST SWAP2 POP PUSH2 0x34EF DUP3 PUSH2 0x348A JUMP JUMPDEST PUSH1 0x40 DUP3 ADD SWAP1 POP SWAP2 SWAP1 POP JUMP JUMPDEST PUSH0 PUSH1 0x20 DUP3 ADD SWAP1 POP DUP2 DUP2 SUB PUSH0 DUP4 ADD MSTORE PUSH2 0x3511 DUP2 PUSH2 0x34D8 JUMP JUMPDEST SWAP1 POP SWAP2 SWAP1 POP JUMP JUMPDEST PUSH0 PUSH2 0x3522 DUP3 PUSH2 0x22A0 JUMP JUMPDEST SWAP2 POP PUSH2 0x352D DUP4 PUSH2 0x22A0 JUMP JUMPDEST SWAP3 POP DUP3 DUP3 ADD SWAP1 POP DUP1 DUP3 GT ISZERO PUSH2 0x3545 JUMPI PUSH2 0x3544 PUSH2 0x30B4 JUMP JUMPDEST JUMPDEST SWAP3 SWAP2 POP POP JUMP JUMPDEST PUSH0 PUSH1 0x40 DUP3 ADD SWAP1 POP PUSH2 0x355E PUSH0 DUP4 ADD DUP6 PUSH2 0x2311 JUMP JUMPDEST PUSH2 0x356B PUSH1 0x20 DUP4 ADD DUP5 PUSH2 0x2311 JUMP JUMPDEST SWAP4 SWAP3 POP POP POP JUMP JUMPDEST PUSH32 0x455243313135353A2069647320616E6420616D6F756E7473206C656E67746820 PUSH0 DUP3 ADD MSTORE PUSH32 0x6D69736D61746368000000000000000000000000000000000000000000000000 PUSH1 0x20 DUP3 ADD MSTORE POP JUMP JUMPDEST PUSH0 PUSH2 0x35CC PUSH1 0x28 DUP4 PUSH2 0x23F6 JUMP JUMPDEST SWAP2 POP PUSH2 0x35D7 DUP3 PUSH2 0x3572 JUMP JUMPDEST PUSH1 0x40 DUP3 ADD SWAP1 POP SWAP2 SWAP1 POP JUMP JUMPDEST PUSH0 PUSH1 0x20 DUP3 ADD SWAP1 POP DUP2 DUP2 SUB PUSH0 DUP4 ADD MSTORE PUSH2 0x35F9 DUP2 PUSH2 0x35C0 JUMP JUMPDEST SWAP1 POP SWAP2 SWAP1 POP JUMP JUMPDEST PUSH32 0x455243313135353A207472616E7366657220746F20746865207A65726F206164 PUSH0 DUP3 ADD MSTORE PUSH32 0x6472657373000000000000000000000000000000000000000000000000000000 PUSH1 0x20 DUP3 ADD MSTORE POP JUMP JUMPDEST PUSH0 PUSH2 0x365A PUSH1 0x25 DUP4 PUSH2 0x23F6 JUMP JUMPDEST SWAP2 POP PUSH2 0x3665 DUP3 PUSH2 0x3600 JUMP JUMPDEST PUSH1 0x40 DUP3 ADD SWAP1 POP SWAP2 SWAP1 POP JUMP JUMPDEST PUSH0 PUSH1 0x20 DUP3 ADD SWAP1 POP DUP2 DUP2 SUB PUSH0 DUP4 ADD MSTORE PUSH2 0x3687 DUP2 PUSH2 0x364E JUMP JUMPDEST SWAP1 POP SWAP2 SWAP1 POP JUMP JUMPDEST PUSH32 0x455243313135353A20696E73756666696369656E742062616C616E636520666F PUSH0 DUP3 ADD MSTORE PUSH32 0x72207472616E7366657200000000000000000000000000000000000000000000 PUSH1 0x20 DUP3 ADD MSTORE POP JUMP JUMPDEST PUSH0 PUSH2 0x36E8 PUSH1 0x2A DUP4 PUSH2 0x23F6 JUMP JUMPDEST SWAP2 POP PUSH2 0x36F3 DUP3 PUSH2 0x368E JUMP JUMPDEST PUSH1 0x40 DUP3 ADD SWAP1 POP SWAP2 SWAP1 POP JUMP JUMPDEST PUSH0 PUSH1 0x20 DUP3 ADD SWAP1 POP DUP2 DUP2 SUB PUSH0 DUP4 ADD MSTORE PUSH2 0x3715 DUP2 PUSH2 0x36DC JUMP JUMPDEST SWAP1 POP SWAP2 SWAP1 POP JUMP JUMPDEST PUSH0 PUSH1 0x40 DUP3 ADD SWAP1 POP DUP2 DUP2 SUB PUSH0 DUP4 ADD MSTORE PUSH2 0x3734 DUP2 DUP6 PUSH2 0x295D JUMP JUMPDEST SWAP1 POP DUP2 DUP2 SUB PUSH1 0x20 DUP4 ADD MSTORE PUSH2 0x3748 DUP2 DUP5 PUSH2 0x295D JUMP JUMPDEST SWAP1 POP SWAP4 SWAP3 POP POP POP JUMP JUMPDEST PUSH32 0x455243313135353A206275726E2066726F6D20746865207A65726F2061646472 PUSH0 DUP3 ADD MSTORE PUSH32 0x6573730000000000000000000000000000000000000000000000000000000000 PUSH1 0x20 DUP3 ADD MSTORE POP JUMP JUMPDEST PUSH0 PUSH2 0x37AB PUSH1 0x23 DUP4 PUSH2 0x23F6 JUMP JUMPDEST SWAP2 POP PUSH2 0x37B6 DUP3 PUSH2 0x3751 JUMP JUMPDEST PUSH1 0x40 DUP3 ADD SWAP1 POP SWAP2 SWAP1 POP JUMP JUMPDEST PUSH0 PUSH1 0x20 DUP3 ADD SWAP1 POP DUP2 DUP2 SUB PUSH0 DUP4 ADD MSTORE PUSH2 0x37D8 DUP2 PUSH2 0x379F JUMP JUMPDEST SWAP1 POP SWAP2 SWAP1 POP JUMP JUMPDEST PUSH32 0x455243313135353A206275726E20616D6F756E7420657863656564732062616C PUSH0 DUP3 ADD MSTORE PUSH32 0x616E636500000000000000000000000000000000000000000000000000000000 PUSH1 0x20 DUP3 ADD MSTORE POP JUMP JUMPDEST PUSH0 PUSH2 0x3839 PUSH1 0x24 DUP4 PUSH2 0x23F6 JUMP JUMPDEST SWAP2 POP PUSH2 0x3844 DUP3 PUSH2 0x37DF JUMP JUMPDEST PUSH1 0x40 DUP3 ADD SWAP1 POP SWAP2 SWAP1 POP JUMP JUMPDEST PUSH0 PUSH1 0x20 DUP3 ADD SWAP1 POP DUP2 DUP2 SUB PUSH0 DUP4 ADD MSTORE PUSH2 0x3866 DUP2 PUSH2 0x382D JUMP JUMPDEST SWAP1 POP SWAP2 SWAP1 POP JUMP JUMPDEST PUSH32 0x455243313135353A2073657474696E6720617070726F76616C20737461747573 PUSH0 DUP3 ADD MSTORE PUSH32 0x20666F722073656C660000000000000000000000000000000000000000000000 PUSH1 0x20 DUP3 ADD MSTORE POP JUMP JUMPDEST PUSH0 PUSH2 0x38C7 PUSH1 0x29 DUP4 PUSH2 0x23F6 JUMP JUMPDEST SWAP2 POP PUSH2 0x38D2 DUP3 PUSH2 0x386D JUMP JUMPDEST PUSH1 0x40 DUP3 ADD SWAP1 POP SWAP2 SWAP1 POP JUMP JUMPDEST PUSH0 PUSH1 0x20 DUP3 ADD SWAP1 POP DUP2 DUP2 SUB PUSH0 DUP4 ADD MSTORE PUSH2 0x38F4 DUP2 PUSH2 0x38BB JUMP JUMPDEST SWAP1 POP SWAP2 SWAP1 POP JUMP JUMPDEST PUSH0 DUP2 MLOAD SWAP1 POP SWAP2 SWAP1 POP JUMP JUMPDEST PUSH0 DUP3 DUP3 MSTORE PUSH1 0x20 DUP3 ADD SWAP1 POP SWAP3 SWAP2 POP POP JUMP JUMPDEST PUSH0 PUSH2 0x391F DUP3 PUSH2 0x38FB JUMP JUMPDEST PUSH2 0x3929 DUP2 DUP6 PUSH2 0x3905 JUMP JUMPDEST SWAP4 POP PUSH2 0x3939 DUP2 DUP6 PUSH1 0x20 DUP7 ADD PUSH2 0x2406 JUMP JUMPDEST PUSH2 0x3942 DUP2 PUSH2 0x242E JUMP JUMPDEST DUP5 ADD SWAP2 POP POP SWAP3 SWAP2 POP POP JUMP JUMPDEST PUSH0 PUSH1 0xA0 DUP3 ADD SWAP1 POP PUSH2 0x3960 PUSH0 DUP4 ADD DUP9 PUSH2 0x2C2E JUMP JUMPDEST PUSH2 0x396D PUSH1 0x20 DUP4 ADD DUP8 PUSH2 0x2C2E JUMP JUMPDEST PUSH2 0x397A PUSH1 0x40 DUP4 ADD DUP7 PUSH2 0x2311 JUMP JUMPDEST PUSH2 0x3987 PUSH1 0x60 DUP4 ADD DUP6 PUSH2 0x2311 JUMP JUMPDEST DUP2 DUP2 SUB PUSH1 0x80 DUP4 ADD MSTORE PUSH2 0x3999 DUP2 DUP5 PUSH2 0x3915 JUMP JUMPDEST SWAP1 POP SWAP7 SWAP6 POP POP POP POP POP POP JUMP JUMPDEST PUSH0 DUP2 MLOAD SWAP1 POP PUSH2 0x39B3 DUP2 PUSH2 0x2364 JUMP JUMPDEST SWAP3 SWAP2 POP POP JUMP JUMPDEST PUSH0 PUSH1 0x20 DUP3 DUP5 SUB SLT ISZERO PUSH2 0x39CE JUMPI PUSH2 0x39CD PUSH2 0x223E JUMP JUMPDEST JUMPDEST PUSH0 PUSH2 0x39DB DUP5 DUP3 DUP6 ADD PUSH2 0x39A5 JUMP JUMPDEST SWAP2 POP POP SWAP3 SWAP2 POP POP JUMP JUMPDEST PUSH0 DUP2 PUSH1 0xE0 SHR SWAP1 POP SWAP2 SWAP1 POP JUMP JUMPDEST PUSH0 PUSH1 0x3 RETURNDATASIZE GT ISZERO PUSH2 0x3A0C JUMPI PUSH1 0x4 PUSH0 DUP1 RETURNDATACOPY PUSH2 0x3A09 PUSH0 MLOAD PUSH2 0x39E4 JUMP JUMPDEST SWAP1 POP JUMPDEST SWAP1 JUMP JUMPDEST PUSH0 PUSH1 0x44 RETURNDATASIZE LT PUSH2 0x3A9B JUMPI PUSH2 0x3A20 PUSH2 0x2235 JUMP JUMPDEST PUSH1 0x4 RETURNDATASIZE SUB PUSH1 0x4 DUP3 RETURNDATACOPY DUP1 MLOAD RETURNDATASIZE PUSH1 0x24 DUP3 ADD GT PUSH8 0xFFFFFFFFFFFFFFFF DUP3 GT OR ISZERO PUSH2 0x3A48 JUMPI POP POP PUSH2 0x3A9B JUMP JUMPDEST DUP1 DUP3 ADD DUP1 MLOAD PUSH8 0xFFFFFFFFFFFFFFFF DUP2 GT ISZERO PUSH2 0x3A66 JUMPI POP POP POP POP PUSH2 0x3A9B JUMP JUMPDEST DUP1 PUSH1 0x20 DUP4 ADD ADD PUSH1 0x4 RETURNDATASIZE SUB DUP6 ADD DUP2 GT ISZERO PUSH2 0x3A83 JUMPI POP POP POP POP POP PUSH2 0x3A9B JUMP JUMPDEST PUSH2 0x3A92 DUP3 PUSH1 0x20 ADD DUP6 ADD DUP7 PUSH2 0x2542 JUMP JUMPDEST DUP3 SWAP6 POP POP POP POP POP POP JUMPDEST SWAP1 JUMP JUMPDEST PUSH32 0x455243313135353A207472616E7366657220746F206E6F6E2D45524331313535 PUSH0 DUP3 ADD MSTORE PUSH32 0x526563656976657220696D706C656D656E746572000000000000000000000000 PUSH1 0x20 DUP3 ADD MSTORE POP JUMP JUMPDEST PUSH0 PUSH2 0x3AF8 PUSH1 0x34 DUP4 PUSH2 0x23F6 JUMP JUMPDEST SWAP2 POP PUSH2 0x3B03 DUP3 PUSH2 0x3A9E JUMP JUMPDEST PUSH1 0x40 DUP3 ADD SWAP1 POP SWAP2 SWAP1 POP JUMP JUMPDEST PUSH0 PUSH1 0x20 DUP3 ADD SWAP1 POP DUP2 DUP2 SUB PUSH0 DUP4 ADD MSTORE PUSH2 0x3B25 DUP2 PUSH2 0x3AEC JUMP JUMPDEST SWAP1 POP SWAP2 SWAP1 POP JUMP JUMPDEST PUSH32 0x455243313135353A204552433131353552656365697665722072656A65637465 PUSH0 DUP3 ADD MSTORE PUSH32 0x6420746F6B656E73000000000000000000000000000000000000000000000000 PUSH1 0x20 DUP3 ADD MSTORE POP JUMP JUMPDEST PUSH0 PUSH2 0x3B86 PUSH1 0x28 DUP4 PUSH2 0x23F6 JUMP JUMPDEST SWAP2 POP PUSH2 0x3B91 DUP3 PUSH2 0x3B2C JUMP JUMPDEST PUSH1 0x40 DUP3 ADD SWAP1 POP SWAP2 SWAP1 POP JUMP JUMPDEST PUSH0 PUSH1 0x20 DUP3 ADD SWAP1 POP DUP2 DUP2 SUB PUSH0 DUP4 ADD MSTORE PUSH2 0x3BB3 DUP2 PUSH2 0x3B7A JUMP JUMPDEST SWAP1 POP SWAP2 SWAP1 POP JUMP JUMPDEST PUSH0 PUSH1 0xA0 DUP3 ADD SWAP1 POP PUSH2 0x3BCD PUSH0 DUP4 ADD DUP9 PUSH2 0x2C2E JUMP JUMPDEST PUSH2 0x3BDA PUSH1 0x20 DUP4 ADD DUP8 PUSH2 0x2C2E JUMP JUMPDEST DUP2 DUP2 SUB PUSH1 0x40 DUP4 ADD MSTORE PUSH2 0x3BEC DUP2 DUP7 PUSH2 0x295D JUMP JUMPDEST SWAP1 POP DUP2 DUP2 SUB PUSH1 0x60 DUP4 ADD MSTORE PUSH2 0x3C00 DUP2 DUP6 PUSH2 0x295D JUMP JUMPDEST SWAP1 POP DUP2 DUP2 SUB PUSH1 0x80 DUP4 ADD MSTORE PUSH2 0x3C14 DUP2 DUP5 PUSH2 0x3915 JUMP JUMPDEST SWAP1 POP SWAP7 SWAP6 POP POP POP POP POP POP JUMP INVALID LOG2 PUSH5 0x6970667358 0x22 SLT KECCAK256 0xD8 0x21 0x2C 0xB5 PUSH27 0x4BAB60F39A2A3BFAA0663341B470AA199CAF27770267D9EB8A8D66 PUSH5 0x736F6C6343 STOP ADDMOD EQ STOP CALLER "
		},
		"gasEstimates": {
			"creation": {
				"codeDepositCost": "3089200",
				"executionCost": "infinite",
				"totalCost": "infinite"
			},
			"external": {
				"balanceOf(address,uint256)": "infinite",
				"balanceOfBatch(address[],uint256[])": "infinite",
				"burn(uint256,uint256)": "infinite",
				"burnBatch(uint256[],uint256[])": "infinite",
				"burnForMint(address,uint256[],uint256[],uint256[],uint256[])": "infinite",
				"isApprovedForAll(address,address)": "infinite",
				"mint(address,uint256,uint256)": "infinite",
				"mintBatch(address,uint256[],uint256[])": "infinite",
				"name()": "infinite",
				"owner()": "2560",
				"renounceOwnership()": "30479",
				"safeBatchTransferFrom(address,address,uint256[],uint256[],bytes)": "infinite",
				"safeTransferFrom(address,address,uint256,uint256,bytes)": "infinite",
				"setApprovalForAll(address,bool)": "infinite",
				"setURI(uint256,string)": "infinite",
				"supportsInterface(bytes4)": "809",
				"symbol()": "infinite",
				"tokenURI(uint256)": "infinite",
				"transferOwnership(address)": "30841",
				"uri(uint256)": "infinite"
			}
		},
		"methodIdentifiers": {
			"balanceOf(address,uint256)": "00fdd58e",
			"balanceOfBatch(address[],uint256[])": "4e1273f4",
			"burn(uint256,uint256)": "b390c0ab",
			"burnBatch(uint256[],uint256[])": "83ca4b6f",
			"burnForMint(address,uint256[],uint256[],uint256[],uint256[])": "510f4104",
			"isApprovedForAll(address,address)": "e985e9c5",
			"mint(address,uint256,uint256)": "156e29f6",
			"mintBatch(address,uint256[],uint256[])": "d81d0a15",
			"name()": "06fdde03",
			"owner()": "8da5cb5b",
			"renounceOwnership()": "715018a6",
			"safeBatchTransferFrom(address,address,uint256[],uint256[],bytes)": "2eb2c2d6",
			"safeTransferFrom(address,address,uint256,uint256,bytes)": "f242432a",
			"setApprovalForAll(address,bool)": "a22cb465",
			"setURI(uint256,string)": "862440e2",
			"supportsInterface(bytes4)": "01ffc9a7",
			"symbol()": "95d89b41",
			"tokenURI(uint256)": "c87b56dd",
			"transferOwnership(address)": "f2fde38b",
			"uri(uint256)": "0e89341c"
		}
	},
	"abi": [
		{
			"inputs": [],
			"stateMutability": "nonpayable",
			"type": "constructor"
		},
		{
			"anonymous": false,
			"inputs": [
				{
					"indexed": true,
					"internalType": "address",
					"name": "account",
					"type": "address"
				},
				{
					"indexed": true,
					"internalType": "address",
					"name": "operator",
					"type": "address"
				},
				{
					"indexed": false,
					"internalType": "bool",
					"name": "approved",
					"type": "bool"
				}
			],
			"name": "ApprovalForAll",
			"type": "event"
		},
		{
			"anonymous": false,
			"inputs": [
				{
					"indexed": true,
					"internalType": "address",
					"name": "previousOwner",
					"type": "address"
				},
				{
					"indexed": true,
					"internalType": "address",
					"name": "newOwner",
					"type": "address"
				}
			],
			"name": "OwnershipTransferred",
			"type": "event"
		},
		{
			"anonymous": false,
			"inputs": [
				{
					"indexed": true,
					"internalType": "address",
					"name": "operator",
					"type": "address"
				},
				{
					"indexed": true,
					"internalType": "address",
					"name": "from",
					"type": "address"
				},
				{
					"indexed": true,
					"internalType": "address",
					"name": "to",
					"type": "address"
				},
				{
					"indexed": false,
					"internalType": "uint256[]",
					"name": "ids",
					"type": "uint256[]"
				},
				{
					"indexed": false,
					"internalType": "uint256[]",
					"name": "values",
					"type": "uint256[]"
				}
			],
			"name": "TransferBatch",
			"type": "event"
		},
		{
			"anonymous": false,
			"inputs": [
				{
					"indexed": true,
					"internalType": "address",
					"name": "operator",
					"type": "address"
				},
				{
					"indexed": true,
					"internalType": "address",
					"name": "from",
					"type": "address"
				},
				{
					"indexed": true,
					"internalType": "address",
					"name": "to",
					"type": "address"
				},
				{
					"indexed": false,
					"internalType": "uint256",
					"name": "id",
					"type": "uint256"
				},
				{
					"indexed": false,
					"internalType": "uint256",
					"name": "value",
					"type": "uint256"
				}
			],
			"name": "TransferSingle",
			"type": "event"
		},
		{
			"anonymous": false,
			"inputs": [
				{
					"indexed": false,
					"internalType": "string",
					"name": "value",
					"type": "string"
				},
				{
					"indexed": true,
					"internalType": "uint256",
					"name": "id",
					"type": "uint256"
				}
			],
			"name": "URI",
			"type": "event"
		},
		{
			"inputs": [
				{
					"internalType": "address",
					"name": "account",
					"type": "address"
				},
				{
					"internalType": "uint256",
					"name": "id",
					"type": "uint256"
				}
			],
			"name": "balanceOf",
			"outputs": [
				{
					"internalType": "uint256",
					"name": "",
					"type": "uint256"
				}
			],
			"stateMutability": "view",
			"type": "function"
		},
		{
			"inputs": [
				{
					"internalType": "address[]",
					"name": "accounts",
					"type": "address[]"
				},
				{
					"internalType": "uint256[]",
					"name": "ids",
					"type": "uint256[]"
				}
			],
			"name": "balanceOfBatch",
			"outputs": [
				{
					"internalType": "uint256[]",
					"name": "",
					"type": "uint256[]"
				}
			],
			"stateMutability": "view",
			"type": "function"
		},
		{
			"inputs": [
				{
					"internalType": "uint256",
					"name": "_id",
					"type": "uint256"
				},
				{
					"internalType": "uint256",
					"name": "_amount",
					"type": "uint256"
				}
			],
			"name": "burn",
			"outputs": [],
			"stateMutability": "nonpayable",
			"type": "function"
		},
		{
			"inputs": [
				{
					"internalType": "uint256[]",
					"name": "_ids",
					"type": "uint256[]"
				},
				{
					"internalType": "uint256[]",
					"name": "_amounts",
					"type": "uint256[]"
				}
			],
			"name": "burnBatch",
			"outputs": [],
			"stateMutability": "nonpayable",
			"type": "function"
		},
		{
			"inputs": [
				{
					"internalType": "address",
					"name": "_from",
					"type": "address"
				},
				{
					"internalType": "uint256[]",
					"name": "_burnIds",
					"type": "uint256[]"
				},
				{
					"internalType": "uint256[]",
					"name": "_burnAmounts",
					"type": "uint256[]"
				},
				{
					"internalType": "uint256[]",
					"name": "_mintIds",
					"type": "uint256[]"
				},
				{
					"internalType": "uint256[]",
					"name": "_mintAmounts",
					"type": "uint256[]"
				}
			],
			"name": "burnForMint",
			"outputs": [],
			"stateMutability": "nonpayable",
			"type": "function"
		},
		{
			"inputs": [
				{
					"internalType": "address",
					"name": "account",
					"type": "address"
				},
				{
					"internalType": "address",
					"name": "operator",
					"type": "address"
				}
			],
			"name": "isApprovedForAll",
			"outputs": [
				{
					"internalType": "bool",
					"name": "",
					"type": "bool"
				}
			],
			"stateMutability": "view",
			"type": "function"
		},
		{
			"inputs": [
				{
					"internalType": "address",
					"name": "_to",
					"type": "address"
				},
				{
					"internalType": "uint256",
					"name": "_id",
					"type": "uint256"
				},
				{
					"internalType": "uint256",
					"name": "_amount",
					"type": "uint256"
				}
			],
			"name": "mint",
			"outputs": [],
			"stateMutability": "nonpayable",
			"type": "function"
		},
		{
			"inputs": [
				{
					"internalType": "address",
					"name": "_to",
					"type": "address"
				},
				{
					"internalType": "uint256[]",
					"name": "_ids",
					"type": "uint256[]"
				},
				{
					"internalType": "uint256[]",
					"name": "_amounts",
					"type": "uint256[]"
				}
			],
			"name": "mintBatch",
			"outputs": [],
			"stateMutability": "nonpayable",
			"type": "function"
		},
		{
			"inputs": [],
			"name": "name",
			"outputs": [
				{
					"internalType": "string",
					"name": "",
					"type": "string"
				}
			],
			"stateMutability": "view",
			"type": "function"
		},
		{
			"inputs": [],
			"name": "owner",
			"outputs": [
				{
					"internalType": "address",
					"name": "",
					"type": "address"
				}
			],
			"stateMutability": "view",
			"type": "function"
		},
		{
			"inputs": [],
			"name": "renounceOwnership",
			"outputs": [],
			"stateMutability": "nonpayable",
			"type": "function"
		},
		{
			"inputs": [
				{
					"internalType": "address",
					"name": "from",
					"type": "address"
				},
				{
					"internalType": "address",
					"name": "to",
					"type": "address"
				},
				{
					"internalType": "uint256[]",
					"name": "ids",
					"type": "uint256[]"
				},
				{
					"internalType": "uint256[]",
					"name": "amounts",
					"type": "uint256[]"
				},
				{
					"internalType": "bytes",
					"name": "data",
					"type": "bytes"
				}
			],
			"name": "safeBatchTransferFrom",
			"outputs": [],
			"stateMutability": "nonpayable",
			"type": "function"
		},
		{
			"inputs": [
				{
					"internalType": "address",
					"name": "from",
					"type": "address"
				},
				{
					"internalType": "address",
					"name": "to",
					"type": "address"
				},
				{
					"internalType": "uint256",
					"name": "id",
					"type": "uint256"
				},
				{
					"internalType": "uint256",
					"name": "amount",
					"type": "uint256"
				},
				{
					"internalType": "bytes",
					"name": "data",
					"type": "bytes"
				}
			],
			"name": "safeTransferFrom",
			"outputs": [],
			"stateMutability": "nonpayable",
			"type": "function"
		},
		{
			"inputs": [
				{
					"internalType": "address",
					"name": "operator",
					"type": "address"
				},
				{
					"internalType": "bool",
					"name": "approved",
					"type": "bool"
				}
			],
			"name": "setApprovalForAll",
			"outputs": [],
			"stateMutability": "nonpayable",
			"type": "function"
		},
		{
			"inputs": [
				{
					"internalType": "uint256",
					"name": "_id",
					"type": "uint256"
				},
				{
					"internalType": "string",
					"name": "_uri",
					"type": "string"
				}
			],
			"name": "setURI",
			"outputs": [],
			"stateMutability": "nonpayable",
			"type": "function"
		},
		{
			"inputs": [
				{
					"internalType": "bytes4",
					"name": "interfaceId",
					"type": "bytes4"
				}
			],
			"name": "supportsInterface",
			"outputs": [
				{
					"internalType": "bool",
					"name": "",
					"type": "bool"
				}
			],
			"stateMutability": "view",
			"type": "function"
		},
		{
			"inputs": [],
			"name": "symbol",
			"outputs": [
				{
					"internalType": "string",
					"name": "",
					"type": "string"
				}
			],
			"stateMutability": "view",
			"type": "function"
		},
		{
			"inputs": [
				{
					"internalType": "uint256",
					"name": "",
					"type": "uint256"
				}
			],
			"name": "tokenURI",
			"outputs": [
				{
					"internalType": "string",
					"name": "",
					"type": "string"
				}
			],
			"stateMutability": "view",
			"type": "function"
		},
		{
			"inputs": [
				{
					"internalType": "address",
					"name": "newOwner",
					"type": "address"
				}
			],
			"name": "transferOwnership",
			"outputs": [],
			"stateMutability": "nonpayable",
			"type": "function"
		},
		{
			"inputs": [
				{
					"internalType": "uint256",
					"name": "_id",
					"type": "uint256"
				}
			],
			"name": "uri",
			"outputs": [
				{
					"internalType": "string",
					"name": "",
					"type": "string"
				}
			],
			"stateMutability": "view",
			"type": "function"
		}
	]
}